{
  "_format": "hh-sol-artifact-1",
  "contractName": "CharityChain",
  "sourceName": "contracts/CharityChain.sol",
  "abi": [
    {
      "inputs": [],
      "name": "get_charities",
      "outputs": [
        {
          "components": [
            {
              "internalType": "address",
              "name": "charity",
              "type": "address"
            },
            {
              "internalType": "string",
              "name": "title",
              "type": "string"
            }
          ],
          "internalType": "struct CharityChain.CharityInfo[]",
          "name": "",
          "type": "tuple[]"
        }
      ],
      "stateMutability": "view",
      "type": "function"
    },
    {
      "inputs": [],
      "name": "get_random_charity",
      "outputs": [
        {
          "components": [
            {
              "internalType": "address",
              "name": "charity",
              "type": "address"
            },
            {
              "internalType": "string",
              "name": "title",
              "type": "string"
            }
          ],
          "internalType": "struct CharityChain.CharityInfo",
          "name": "",
          "type": "tuple"
        }
      ],
      "stateMutability": "view",
      "type": "function"
    },
    {
      "inputs": [],
      "name": "get_user_contributions",
      "outputs": [
        {
          "components": [
            {
              "internalType": "address",
              "name": "charity",
              "type": "address"
            },
            {
              "internalType": "uint256",
              "name": "amount",
              "type": "uint256"
            }
          ],
          "internalType": "struct CharityChain.UserContribution[]",
          "name": "",
          "type": "tuple[]"
        }
      ],
      "stateMutability": "view",
      "type": "function"
    },
    {
      "inputs": [],
      "name": "get_user_creations",
      "outputs": [
        {
          "internalType": "address[]",
          "name": "",
          "type": "address[]"
        }
      ],
      "stateMutability": "view",
      "type": "function"
    },
    {
      "inputs": [
        {
          "internalType": "string",
          "name": "_name",
          "type": "string"
        },
        {
          "internalType": "address",
          "name": "_beneficiary",
          "type": "address"
        },
        {
          "internalType": "uint256",
          "name": "_goal",
          "type": "uint256"
        },
        {
          "internalType": "string",
          "name": "_metadata",
          "type": "string"
        },
        {
          "internalType": "uint256",
          "name": "_end_time",
          "type": "uint256"
        }
      ],
      "name": "make_charity",
      "outputs": [
        {
          "internalType": "address",
          "name": "",
          "type": "address"
        }
      ],
      "stateMutability": "payable",
      "type": "function"
    }
  ],
  "bytecode": "0x6080604052600067ffffffffffffffff8111156200002257620000216200012c565b5b604051908082528060200260200182016040528015620000515781602001602082028036833780820191505090505b5060009080519060200190620000699291906200007e565b503480156200007757600080fd5b506200015b565b828054828255906000526020600020908101928215620000fa579160200282015b82811115620000f95782518260006101000a81548173ffffffffffffffffffffffffffffffffffffffff021916908373ffffffffffffffffffffffffffffffffffffffff160217905550916020019190600101906200009f565b5b5090506200010991906200010d565b5090565b5b80821115620001285760008160009055506001016200010e565b5090565b7f4e487b7100000000000000000000000000000000000000000000000000000000600052604160045260246000fd5b612c09806200016b6000396000f3fe608060405260043610620000505760003560e01c806312f4b0041462000055578063147742e1146200008b57806314a1e3ed14620000bb5780635feded5d14620000eb57806395252202146200011b575b600080fd5b6200007360048036038101906200006d919062000bde565b6200014b565b60405162000082919062000cb5565b60405180910390f35b3480156200009857600080fd5b50620000a362000203565b604051620000b2919062000da0565b60405180910390f35b348015620000c857600080fd5b50620000d362000408565b604051620000e2919062000f5e565b60405180910390f35b348015620000f857600080fd5b5062000103620005e6565b60405162000112919062001083565b60405180910390f35b3480156200012857600080fd5b5062000133620007d7565b604051620001429190620010e8565b60405180910390f35b60008086868685873360405162000162906200095a565b62000173969594939291906200116f565b604051809103906000f08015801562000190573d6000803e3d6000fd5b5090506000819080600181540180825580915050600190039060005260206000200160009091909190916101000a81548173ffffffffffffffffffffffffffffffffffffffff021916908373ffffffffffffffffffffffffffffffffffffffff1602179055508091505095945050505050565b606060008080549050905060008167ffffffffffffffff8111156200022d576200022c620009f7565b5b6040519080825280602002602001820160405280156200025c5781602001602082028036833780820191505090505b50905060005b82811015620003ff576000808281548110620002835762000282620011ea565b5b9060005260206000200160009054906101000a900473ffffffffffffffffffffffffffffffffffffffff1673ffffffffffffffffffffffffffffffffffffffff1663ace1ed076040518163ffffffff1660e01b8152600401602060405180830381865afa158015620002f9573d6000803e3d6000fd5b505050506040513d601f19601f820116820180604052508101906200031f919062001230565b90503373ffffffffffffffffffffffffffffffffffffffff168173ffffffffffffffffffffffffffffffffffffffff1603620003e857600082815481106200036c576200036b620011ea565b5b9060005260206000200160009054906101000a900473ffffffffffffffffffffffffffffffffffffffff16838381518110620003ad57620003ac620011ea565b5b602002602001019073ffffffffffffffffffffffffffffffffffffffff16908173ffffffffffffffffffffffffffffffffffffffff16815250505b508080620003f69062001291565b91505062000262565b50809250505090565b606060008080549050905060008167ffffffffffffffff811115620004325762000431620009f7565b5b6040519080825280602002602001820160405280156200046f57816020015b6200045b62000968565b815260200190600190039081620004515790505b50905060005b82811015620005dd576000808281548110620004965762000495620011ea565b5b9060005260206000200160009054906101000a900473ffffffffffffffffffffffffffffffffffffffff1673ffffffffffffffffffffffffffffffffffffffff16633a525c296040518163ffffffff1660e01b8152600401600060405180830381865afa1580156200050c573d6000803e3d6000fd5b505050506040513d6000823e3d601f19601f820116820180604052508101906200053791906200135c565b90506040518060400160405280600084815481106200055b576200055a620011ea565b5b9060005260206000200160009054906101000a900473ffffffffffffffffffffffffffffffffffffffff1673ffffffffffffffffffffffffffffffffffffffff16815260200182815250838381518110620005bb57620005ba620011ea565b5b6020026020010181905250508080620005d49062001291565b91505062000475565b50809250505090565b606060008080549050905060008167ffffffffffffffff81111562000610576200060f620009f7565b5b6040519080825280602002602001820160405280156200064d57816020015b6200063962000998565b8152602001906001900390816200062f5790505b50905060005b82811015620007ce576000808281548110620006745762000673620011ea565b5b9060005260206000200160009054906101000a900473ffffffffffffffffffffffffffffffffffffffff1673ffffffffffffffffffffffffffffffffffffffff166345dea629336040518263ffffffff1660e01b8152600401620006d9919062000cb5565b602060405180830381865afa158015620006f7573d6000803e3d6000fd5b505050506040513d601f19601f820116820180604052508101906200071d9190620013c4565b90506000811115620007b7576040518060400160405280600084815481106200074b576200074a620011ea565b5b9060005260206000200160009054906101000a900473ffffffffffffffffffffffffffffffffffffffff1673ffffffffffffffffffffffffffffffffffffffff16815260200182815250838381518110620007ab57620007aa620011ea565b5b60200260200101819052505b508080620007c59062001291565b91505062000653565b50809250505090565b620007e162000968565b60008080549050905060008144423360405160200162000804939291906200146b565b6040516020818303038152906040528051906020012060001c620008299190620014dd565b90506000808281548110620008435762000842620011ea565b5b9060005260206000200160009054906101000a900473ffffffffffffffffffffffffffffffffffffffff1673ffffffffffffffffffffffffffffffffffffffff16633a525c296040518163ffffffff1660e01b8152600401600060405180830381865afa158015620008b9573d6000803e3d6000fd5b505050506040513d6000823e3d601f19601f82011682018060405250810190620008e491906200135c565b9050604051806040016040528060008481548110620009085762000907620011ea565b5b9060005260206000200160009054906101000a900473ffffffffffffffffffffffffffffffffffffffff1673ffffffffffffffffffffffffffffffffffffffff16815260200182815250935050505090565b6116be806200151683390190565b6040518060400160405280600073ffffffffffffffffffffffffffffffffffffffff168152602001606081525090565b6040518060400160405280600073ffffffffffffffffffffffffffffffffffffffff168152602001600081525090565b6000604051905090565b600080fd5b600080fd5b600080fd5b600080fd5b6000601f19601f8301169050919050565b7f4e487b7100000000000000000000000000000000000000000000000000000000600052604160045260246000fd5b62000a3182620009e6565b810181811067ffffffffffffffff8211171562000a535762000a52620009f7565b5b80604052505050565b600062000a68620009c8565b905062000a76828262000a26565b919050565b600067ffffffffffffffff82111562000a995762000a98620009f7565b5b62000aa482620009e6565b9050602081019050919050565b82818337600083830152505050565b600062000ad762000ad18462000a7b565b62000a5c565b90508281526020810184848401111562000af65762000af5620009e1565b5b62000b0384828562000ab1565b509392505050565b600082601f83011262000b235762000b22620009dc565b5b813562000b3584826020860162000ac0565b91505092915050565b600073ffffffffffffffffffffffffffffffffffffffff82169050919050565b600062000b6b8262000b3e565b9050919050565b62000b7d8162000b5e565b811462000b8957600080fd5b50565b60008135905062000b9d8162000b72565b92915050565b6000819050919050565b62000bb88162000ba3565b811462000bc457600080fd5b50565b60008135905062000bd88162000bad565b92915050565b600080600080600060a0868803121562000bfd5762000bfc620009d2565b5b600086013567ffffffffffffffff81111562000c1e5762000c1d620009d7565b5b62000c2c8882890162000b0b565b955050602062000c3f8882890162000b8c565b945050604062000c528882890162000bc7565b935050606086013567ffffffffffffffff81111562000c765762000c75620009d7565b5b62000c848882890162000b0b565b925050608062000c978882890162000bc7565b9150509295509295909350565b62000caf8162000b5e565b82525050565b600060208201905062000ccc600083018462000ca4565b92915050565b600081519050919050565b600082825260208201905092915050565b6000819050602082019050919050565b62000d098162000b5e565b82525050565b600062000d1d838362000cfe565b60208301905092915050565b6000602082019050919050565b600062000d438262000cd2565b62000d4f818562000cdd565b935062000d5c8362000cee565b8060005b8381101562000d9357815162000d77888262000d0f565b975062000d848362000d29565b92505060018101905062000d60565b5085935050505092915050565b6000602082019050818103600083015262000dbc818462000d36565b905092915050565b600081519050919050565b600082825260208201905092915050565b6000819050602082019050919050565b600081519050919050565b600082825260208201905092915050565b60005b8381101562000e2c57808201518184015260208101905062000e0f565b60008484015250505050565b600062000e458262000df0565b62000e51818562000dfb565b935062000e6381856020860162000e0c565b62000e6e81620009e6565b840191505092915050565b600060408301600083015162000e93600086018262000cfe565b506020830151848203602086015262000ead828262000e38565b9150508091505092915050565b600062000ec8838362000e79565b905092915050565b6000602082019050919050565b600062000eea8262000dc4565b62000ef6818562000dcf565b93508360208202850162000f0a8562000de0565b8060005b8581101562000f4c578484038952815162000f2a858262000eba565b945062000f378362000ed0565b925060208a0199505060018101905062000f0e565b50829750879550505050505092915050565b6000602082019050818103600083015262000f7a818462000edd565b905092915050565b600081519050919050565b600082825260208201905092915050565b6000819050602082019050919050565b62000fb98162000ba3565b82525050565b60408201600082015162000fd7600085018262000cfe565b50602082015162000fec602085018262000fae565b50505050565b600062001000838362000fbf565b60408301905092915050565b6000602082019050919050565b6000620010268262000f82565b62001032818562000f8d565b93506200103f8362000f9e565b8060005b83811015620010765781516200105a888262000ff2565b975062001067836200100c565b92505060018101905062001043565b5085935050505092915050565b600060208201905081810360008301526200109f818462001019565b905092915050565b6000604083016000830151620010c1600086018262000cfe565b5060208301518482036020860152620010db828262000e38565b9150508091505092915050565b60006020820190508181036000830152620011048184620010a7565b905092915050565b600082825260208201905092915050565b60006200112a8262000df0565b6200113681856200110c565b93506200114881856020860162000e0c565b6200115381620009e6565b840191505092915050565b620011698162000ba3565b82525050565b600060c08201905081810360008301526200118b81896200111d565b90506200119c602083018862000ca4565b620011ab60408301876200115e565b620011ba60608301866200115e565b8181036080830152620011ce81856200111d565b9050620011df60a083018462000ca4565b979650505050505050565b7f4e487b7100000000000000000000000000000000000000000000000000000000600052603260045260246000fd5b6000815190506200122a8162000b72565b92915050565b600060208284031215620012495762001248620009d2565b5b6000620012598482850162001219565b91505092915050565b7f4e487b7100000000000000000000000000000000000000000000000000000000600052601160045260246000fd5b60006200129e8262000ba3565b91507fffffffffffffffffffffffffffffffffffffffffffffffffffffffffffffffff8203620012d357620012d262001262565b5b600182019050919050565b6000620012f5620012ef8462000a7b565b62000a5c565b905082815260208101848484011115620013145762001313620009e1565b5b6200132184828562000e0c565b509392505050565b600082601f830112620013415762001340620009dc565b5b815162001353848260208601620012de565b91505092915050565b600060208284031215620013755762001374620009d2565b5b600082015167ffffffffffffffff811115620013965762001395620009d7565b5b620013a48482850162001329565b91505092915050565b600081519050620013be8162000bad565b92915050565b600060208284031215620013dd57620013dc620009d2565b5b6000620013ed84828501620013ad565b91505092915050565b6000819050919050565b620014156200140f8262000ba3565b620013f6565b82525050565b60008160601b9050919050565b600062001435826200141b565b9050919050565b6000620014498262001428565b9050919050565b620014656200145f8262000b5e565b6200143c565b82525050565b600062001479828662001400565b6020820191506200148b828562001400565b6020820191506200149d828462001450565b601482019150819050949350505050565b7f4e487b7100000000000000000000000000000000000000000000000000000000600052601260045260246000fd5b6000620014ea8262000ba3565b9150620014f78362000ba3565b9250826200150a5762001509620014ae565b5b82820690509291505056fe60806040526000600760006101000a81548160ff0219169083151502179055503480156200002c57600080fd5b50604051620016be380380620016be83398181016040528101906200005291906200039b565b8560009081620000639190620006b6565b5084600560006101000a81548173ffffffffffffffffffffffffffffffffffffffff021916908373ffffffffffffffffffffffffffffffffffffffff160217905550836004819055504283620000ba9190620007cc565b60068190555080600360006101000a81548173ffffffffffffffffffffffffffffffffffffffff021916908373ffffffffffffffffffffffffffffffffffffffff16021790555033600760016101000a81548173ffffffffffffffffffffffffffffffffffffffff021916908373ffffffffffffffffffffffffffffffffffffffff160217905550600060088190555081600190816200015b9190620006b6565b5050505050505062000807565b6000604051905090565b600080fd5b600080fd5b600080fd5b600080fd5b6000601f19601f8301169050919050565b7f4e487b7100000000000000000000000000000000000000000000000000000000600052604160045260246000fd5b620001d18262000186565b810181811067ffffffffffffffff82111715620001f357620001f262000197565b5b80604052505050565b60006200020862000168565b9050620002168282620001c6565b919050565b600067ffffffffffffffff82111562000239576200023862000197565b5b620002448262000186565b9050602081019050919050565b60005b838110156200027157808201518184015260208101905062000254565b60008484015250505050565b6000620002946200028e846200021b565b620001fc565b905082815260208101848484011115620002b357620002b262000181565b5b620002c084828562000251565b509392505050565b600082601f830112620002e057620002df6200017c565b5b8151620002f28482602086016200027d565b91505092915050565b600073ffffffffffffffffffffffffffffffffffffffff82169050919050565b60006200032882620002fb565b9050919050565b6200033a816200031b565b81146200034657600080fd5b50565b6000815190506200035a816200032f565b92915050565b6000819050919050565b620003758162000360565b81146200038157600080fd5b50565b60008151905062000395816200036a565b92915050565b60008060008060008060c08789031215620003bb57620003ba62000172565b5b600087015167ffffffffffffffff811115620003dc57620003db62000177565b5b620003ea89828a01620002c8565b9650506020620003fd89828a0162000349565b95505060406200041089828a0162000384565b94505060606200042389828a0162000384565b935050608087015167ffffffffffffffff81111562000447576200044662000177565b5b6200045589828a01620002c8565b92505060a06200046889828a0162000349565b9150509295509295509295565b600081519050919050565b7f4e487b7100000000000000000000000000000000000000000000000000000000600052602260045260246000fd5b60006002820490506001821680620004c857607f821691505b602082108103620004de57620004dd62000480565b5b50919050565b60008190508160005260206000209050919050565b60006020601f8301049050919050565b600082821b905092915050565b600060088302620005487fffffffffffffffffffffffffffffffffffffffffffffffffffffffffffffffff8262000509565b62000554868362000509565b95508019841693508086168417925050509392505050565b6000819050919050565b600062000597620005916200058b8462000360565b6200056c565b62000360565b9050919050565b6000819050919050565b620005b38362000576565b620005cb620005c2826200059e565b84845462000516565b825550505050565b600090565b620005e2620005d3565b620005ef818484620005a8565b505050565b5b8181101562000617576200060b600082620005d8565b600181019050620005f5565b5050565b601f82111562000666576200063081620004e4565b6200063b84620004f9565b810160208510156200064b578190505b620006636200065a85620004f9565b830182620005f4565b50505b505050565b600082821c905092915050565b60006200068b600019846008026200066b565b1980831691505092915050565b6000620006a6838362000678565b9150826002028217905092915050565b620006c18262000475565b67ffffffffffffffff811115620006dd57620006dc62000197565b5b620006e98254620004af565b620006f68282856200061b565b600060209050601f8311600181146200072e576000841562000719578287015190505b62000725858262000698565b86555062000795565b601f1984166200073e86620004e4565b60005b82811015620007685784890151825560018201915060208501945060208101905062000741565b8683101562000788578489015162000784601f89168262000678565b8355505b6001600288020188555050505b505050505050565b7f4e487b7100000000000000000000000000000000000000000000000000000000600052601160045260246000fd5b6000620007d98262000360565b9150620007e68362000360565b92508282019050808211156200080157620008006200079d565b5b92915050565b610ea780620008176000396000f3fe6080604052600436106100a75760003560e01c8063a9e10bf211610064578063a9e10bf2146101ac578063ace1ed07146101b6578063c1cfb99a146101e1578063d94de4eb1461020c578063d9fc907e14610237578063e07f63a114610262576100a7565b80633a525c29146100ac5780633aedfb8b146100d75780633c9c192f146100ee57806345dea629146101195780636ded41fd1461015657806386485aaa14610181575b600080fd5b3480156100b857600080fd5b506100c161028d565b6040516100ce9190610970565b60405180910390f35b3480156100e357600080fd5b506100ec61031f565b005b3480156100fa57600080fd5b5061010361057f565b60405161011091906109ab565b60405180910390f35b34801561012557600080fd5b50610140600480360381019061013b9190610a29565b610589565b60405161014d91906109ab565b60405180910390f35b34801561016257600080fd5b5061016b61062c565b60405161017891906109ab565b60405180910390f35b34801561018d57600080fd5b50610196610636565b6040516101a39190610970565b60405180910390f35b6101b46106c8565b005b3480156101c257600080fd5b506101cb610814565b6040516101d89190610a65565b60405180910390f35b3480156101ed57600080fd5b506101f661083e565b60405161020391906109ab565b60405180910390f35b34801561021857600080fd5b50610221610846565b60405161022e91906109ab565b60405180910390f35b34801561024357600080fd5b5061024c61088d565b6040516102599190610a65565b60405180910390f35b34801561026e57600080fd5b506102776108b7565b60405161028491906109ab565b60405180910390f35b60606000805461029c90610aaf565b80601f01602080910402602001604051908101604052809291908181526020018280546102c890610aaf565b80156103155780601f106102ea57610100808354040283529160200191610315565b820191906000526020600020905b8154815290600101906020018083116102f857829003601f168201915b5050505050905090565b600560009054906101000a900473ffffffffffffffffffffffffffffffffffffffff1673ffffffffffffffffffffffffffffffffffffffff163373ffffffffffffffffffffffffffffffffffffffff16146103af576040517f08c379a00000000000000000000000000000000000000000000000000000000081526004016103a690610b52565b60405180910390fd5b600654421015806103c1575047600454105b610400576040517f08c379a00000000000000000000000000000000000000000000000000000000081526004016103f790610be4565b60405180910390fd5b600760009054906101000a900460ff1615610450576040517f08c379a000000000000000000000000000000000000000000000000000000000815260040161044790610c76565b60405180910390fd5b6001600760006101000a81548160ff02191690831515021790555060004790506000811161047d57600080fd5b60003373ffffffffffffffffffffffffffffffffffffffff16826040516104a390610cc7565b60006040518083038185875af1925050503d80600081146104e0576040519150601f19603f3d011682016040523d82523d6000602084013e6104e5565b606091505b5050905080610529576040517f08c379a000000000000000000000000000000000000000000000000000000000815260040161052090610d28565b60405180910390fd5b7f0693a1340de4d4506f6f7d9a2c404381f0ed88bae5f06b8f4c65ace8081d39f08260405161055891906109ab565b60405180910390a16000600760006101000a81548160ff0219169083151502179055505050565b6000600454905090565b6000600760019054906101000a900473ffffffffffffffffffffffffffffffffffffffff1673ffffffffffffffffffffffffffffffffffffffff163373ffffffffffffffffffffffffffffffffffffffff16146105e557600080fd5b600260008373ffffffffffffffffffffffffffffffffffffffff1673ffffffffffffffffffffffffffffffffffffffff168152602001908152602001600020549050919050565b6000600854905090565b60606001805461064590610aaf565b80601f016020809104026020016040519081016040528092919081815260200182805461067190610aaf565b80156106be5780601f10610693576101008083540402835291602001916106be565b820191906000526020600020905b8154815290600101906020018083116106a157829003601f168201915b5050505050905090565b600654421061070c576040517f08c379a000000000000000000000000000000000000000000000000000000000815260040161070390610dba565b60405180910390fd5b6000600260003373ffffffffffffffffffffffffffffffffffffffff1673ffffffffffffffffffffffffffffffffffffffff168152602001908152602001600020541161076e576001600860008282546107669190610e09565b925050819055505b34600260003373ffffffffffffffffffffffffffffffffffffffff1673ffffffffffffffffffffffffffffffffffffffff16815260200190815260200160002060008282546107bd9190610e09565b925050819055503373ffffffffffffffffffffffffffffffffffffffff167f1bb460ccaaf70fbacfec17a376f8acbd278c1405590ffcc8ebe4b88daf4f64ad3460405161080a91906109ab565b60405180910390a2565b6000600360009054906101000a900473ffffffffffffffffffffffffffffffffffffffff16905090565b600047905090565b6000600260003373ffffffffffffffffffffffffffffffffffffffff1673ffffffffffffffffffffffffffffffffffffffff16815260200190815260200160002054905090565b6000600560009054906101000a900473ffffffffffffffffffffffffffffffffffffffff16905090565b60006006544210156108d857426006546108d19190610e3d565b90506108dd565b600090505b90565b600081519050919050565b600082825260208201905092915050565b60005b8381101561091a5780820151818401526020810190506108ff565b60008484015250505050565b6000601f19601f8301169050919050565b6000610942826108e0565b61094c81856108eb565b935061095c8185602086016108fc565b61096581610926565b840191505092915050565b6000602082019050818103600083015261098a8184610937565b905092915050565b6000819050919050565b6109a581610992565b82525050565b60006020820190506109c0600083018461099c565b92915050565b600080fd5b600073ffffffffffffffffffffffffffffffffffffffff82169050919050565b60006109f6826109cb565b9050919050565b610a06816109eb565b8114610a1157600080fd5b50565b600081359050610a23816109fd565b92915050565b600060208284031215610a3f57610a3e6109c6565b5b6000610a4d84828501610a14565b91505092915050565b610a5f816109eb565b82525050565b6000602082019050610a7a6000830184610a56565b92915050565b7f4e487b7100000000000000000000000000000000000000000000000000000000600052602260045260246000fd5b60006002820490506001821680610ac757607f821691505b602082108103610ada57610ad9610a80565b5b50919050565b7f4f6e6c79207468652062656e69666963696172792063616e207769746864726160008201527f776c2066726f6d20746865206368617269747900000000000000000000000000602082015250565b6000610b3c6033836108eb565b9150610b4782610ae0565b604082019050919050565b60006020820190508181036000830152610b6b81610b2f565b9050919050565b7f5468652074696d65206f72206d6f6e657920676f616c7320666f72207468652060008201527f636861726974792068617665206e6f74206265656e2073617469736669656400602082015250565b6000610bce603f836108eb565b9150610bd982610b72565b604082019050919050565b60006020820190508181036000830152610bfd81610bc1565b9050919050565b7f43616e6e6f74207769746864726177207768696c6520616e6f7468657220776960008201527f746864726177616c2069732070726f63657373696e6700000000000000000000602082015250565b6000610c606036836108eb565b9150610c6b82610c04565b604082019050919050565b60006020820190508181036000830152610c8f81610c53565b9050919050565b600081905092915050565b50565b6000610cb1600083610c96565b9150610cbc82610ca1565b600082019050919050565b6000610cd282610ca4565b9150819050919050565b7f4661696c656420746f2073656e64000000000000000000000000000000000000600082015250565b6000610d12600e836108eb565b9150610d1d82610cdc565b602082019050919050565b60006020820190508181036000830152610d4181610d05565b9050919050565b7f546865206c69766520706572696f6420666f722074686973206368617269747960008201527f2068617320656e64656400000000000000000000000000000000000000000000602082015250565b6000610da4602a836108eb565b9150610daf82610d48565b604082019050919050565b60006020820190508181036000830152610dd381610d97565b9050919050565b7f4e487b7100000000000000000000000000000000000000000000000000000000600052601160045260246000fd5b6000610e1482610992565b9150610e1f83610992565b9250828201905080821115610e3757610e36610dda565b5b92915050565b6000610e4882610992565b9150610e5383610992565b9250828203905081811115610e6b57610e6a610dda565b5b9291505056fea2646970667358221220dfb37e0c9f38f9e316f96c312b00c9430a7767d078f3b446e9b5475b83bd073c64736f6c63430008110033a2646970667358221220ca90e66d205cf2b13f59b6d8d37833f86a1b3d3465c1b06a93cc81e29677239c64736f6c63430008110033",
  "linkReferences": {},
  "deployedLinkReferences": {}
}