{
  "_format": "hh-sol-artifact-1",
  "contractName": "Charity",
  "sourceName": "contracts/Charity.sol",
  "abi": [
    {
      "inputs": [
        {
          "internalType": "string",
          "name": "_name",
          "type": "string"
        },
        {
          "internalType": "address",
          "name": "_beneficiary",
          "type": "address"
        },
        {
          "internalType": "uint256",
          "name": "_goal",
          "type": "uint256"
        },
        {
          "internalType": "uint256",
          "name": "_end_time",
          "type": "uint256"
        },
        {
          "internalType": "address",
          "name": "_creator",
          "type": "address"
        }
      ],
      "stateMutability": "nonpayable",
      "type": "constructor"
    },
    {
      "anonymous": false,
      "inputs": [
        {
          "indexed": true,
          "internalType": "address",
          "name": "fromAddress",
          "type": "address"
        },
        {
          "indexed": false,
          "internalType": "uint256",
          "name": "amount",
          "type": "uint256"
        }
      ],
      "name": "ContributionReceived",
      "type": "event"
    },
    {
      "anonymous": false,
      "inputs": [
        {
          "indexed": false,
          "internalType": "uint256",
          "name": "amount",
          "type": "uint256"
        }
      ],
      "name": "WithdrawlSent",
      "type": "event"
    },
    {
      "inputs": [],
      "name": "get_balance",
      "outputs": [
        {
          "internalType": "uint256",
          "name": "",
          "type": "uint256"
        }
      ],
      "stateMutability": "view",
      "type": "function"
    },
    {
      "inputs": [],
      "name": "get_beneficiary",
      "outputs": [
        {
          "internalType": "address",
          "name": "",
          "type": "address"
        }
      ],
      "stateMutability": "view",
      "type": "function"
    },
    {
      "inputs": [],
      "name": "get_creator",
      "outputs": [
        {
          "internalType": "address",
          "name": "",
          "type": "address"
        }
      ],
      "stateMutability": "view",
      "type": "function"
    },
    {
      "inputs": [],
      "name": "get_goal",
      "outputs": [
        {
          "internalType": "uint256",
          "name": "",
          "type": "uint256"
        }
      ],
      "stateMutability": "view",
      "type": "function"
    },
    {
      "inputs": [],
      "name": "get_name",
      "outputs": [
        {
          "internalType": "string",
          "name": "",
          "type": "string"
        }
      ],
      "stateMutability": "view",
      "type": "function"
    },
    {
      "inputs": [],
      "name": "get_time_left",
      "outputs": [
        {
          "internalType": "uint256",
          "name": "",
          "type": "uint256"
        }
      ],
      "stateMutability": "view",
      "type": "function"
    },
    {
      "inputs": [
        {
          "internalType": "address",
          "name": "_user",
          "type": "address"
        }
      ],
      "name": "get_user_balance",
      "outputs": [
        {
          "internalType": "uint256",
          "name": "",
          "type": "uint256"
        }
      ],
      "stateMutability": "view",
      "type": "function"
    },
    {
      "inputs": [],
      "name": "get_user_balance",
      "outputs": [
        {
          "internalType": "uint256",
          "name": "",
          "type": "uint256"
        }
      ],
      "stateMutability": "view",
      "type": "function"
    },
    {
      "inputs": [],
      "name": "recieve",
      "outputs": [],
      "stateMutability": "payable",
      "type": "function"
    },
    {
      "inputs": [],
      "name": "withdrawl",
      "outputs": [],
      "stateMutability": "nonpayable",
      "type": "function"
    }
  ],
  "bytecode": "0x60806040526000600660006101000a81548160ff0219169083151502179055503480156200002c57600080fd5b506040516200150638038062001506833981810160405281019062000052919062000380565b846000908162000063919062000668565b5083600460006101000a81548173ffffffffffffffffffffffffffffffffffffffff021916908373ffffffffffffffffffffffffffffffffffffffff160217905550826003819055504282620000ba91906200077e565b60058190555080600260006101000a81548173ffffffffffffffffffffffffffffffffffffffff021916908373ffffffffffffffffffffffffffffffffffffffff16021790555033600660016101000a81548173ffffffffffffffffffffffffffffffffffffffff021916908373ffffffffffffffffffffffffffffffffffffffff1602179055505050505050620007b9565b6000604051905090565b600080fd5b600080fd5b600080fd5b600080fd5b6000601f19601f8301169050919050565b7f4e487b7100000000000000000000000000000000000000000000000000000000600052604160045260246000fd5b620001b6826200016b565b810181811067ffffffffffffffff82111715620001d857620001d76200017c565b5b80604052505050565b6000620001ed6200014d565b9050620001fb8282620001ab565b919050565b600067ffffffffffffffff8211156200021e576200021d6200017c565b5b62000229826200016b565b9050602081019050919050565b60005b838110156200025657808201518184015260208101905062000239565b60008484015250505050565b600062000279620002738462000200565b620001e1565b90508281526020810184848401111562000298576200029762000166565b5b620002a584828562000236565b509392505050565b600082601f830112620002c557620002c462000161565b5b8151620002d784826020860162000262565b91505092915050565b600073ffffffffffffffffffffffffffffffffffffffff82169050919050565b60006200030d82620002e0565b9050919050565b6200031f8162000300565b81146200032b57600080fd5b50565b6000815190506200033f8162000314565b92915050565b6000819050919050565b6200035a8162000345565b81146200036657600080fd5b50565b6000815190506200037a816200034f565b92915050565b600080600080600060a086880312156200039f576200039e62000157565b5b600086015167ffffffffffffffff811115620003c057620003bf6200015c565b5b620003ce88828901620002ad565b9550506020620003e1888289016200032e565b9450506040620003f48882890162000369565b9350506060620004078882890162000369565b92505060806200041a888289016200032e565b9150509295509295909350565b600081519050919050565b7f4e487b7100000000000000000000000000000000000000000000000000000000600052602260045260246000fd5b600060028204905060018216806200047a57607f821691505b60208210810362000490576200048f62000432565b5b50919050565b60008190508160005260206000209050919050565b60006020601f8301049050919050565b600082821b905092915050565b600060088302620004fa7fffffffffffffffffffffffffffffffffffffffffffffffffffffffffffffffff82620004bb565b620005068683620004bb565b95508019841693508086168417925050509392505050565b6000819050919050565b600062000549620005436200053d8462000345565b6200051e565b62000345565b9050919050565b6000819050919050565b620005658362000528565b6200057d620005748262000550565b848454620004c8565b825550505050565b600090565b6200059462000585565b620005a18184846200055a565b505050565b5b81811015620005c957620005bd6000826200058a565b600181019050620005a7565b5050565b601f8211156200061857620005e28162000496565b620005ed84620004ab565b81016020851015620005fd578190505b620006156200060c85620004ab565b830182620005a6565b50505b505050565b600082821c905092915050565b60006200063d600019846008026200061d565b1980831691505092915050565b60006200065883836200062a565b9150826002028217905092915050565b620006738262000427565b67ffffffffffffffff8111156200068f576200068e6200017c565b5b6200069b825462000461565b620006a8828285620005cd565b600060209050601f831160018114620006e05760008415620006cb578287015190505b620006d785826200064a565b86555062000747565b601f198416620006f08662000496565b60005b828110156200071a57848901518255600182019150602085019450602081019050620006f3565b868310156200073a578489015162000736601f8916826200062a565b8355505b6001600288020188555050505b505050505050565b7f4e487b7100000000000000000000000000000000000000000000000000000000600052601160045260246000fd5b60006200078b8262000345565b9150620007988362000345565b9250828201905080821115620007b357620007b26200074f565b5b92915050565b610d3d80620007c96000396000f3fe6080604052600436106100915760003560e01c8063ace1ed0711610059578063ace1ed071461014a578063c1cfb99a14610175578063d94de4eb146101a0578063d9fc907e146101cb578063e07f63a1146101f657610091565b80633a525c29146100965780633aedfb8b146100c15780633c9c192f146100d857806345dea62914610103578063a9e10bf214610140575b600080fd5b3480156100a257600080fd5b506100ab610221565b6040516100b89190610806565b60405180910390f35b3480156100cd57600080fd5b506100d66102b3565b005b3480156100e457600080fd5b506100ed610513565b6040516100fa9190610841565b60405180910390f35b34801561010f57600080fd5b5061012a600480360381019061012591906108bf565b61051d565b6040516101379190610841565b60405180910390f35b6101486105c0565b005b34801561015657600080fd5b5061015f6106aa565b60405161016c91906108fb565b60405180910390f35b34801561018157600080fd5b5061018a6106d4565b6040516101979190610841565b60405180910390f35b3480156101ac57600080fd5b506101b56106dc565b6040516101c29190610841565b60405180910390f35b3480156101d757600080fd5b506101e0610723565b6040516101ed91906108fb565b60405180910390f35b34801561020257600080fd5b5061020b61074d565b6040516102189190610841565b60405180910390f35b60606000805461023090610945565b80601f016020809104026020016040519081016040528092919081815260200182805461025c90610945565b80156102a95780601f1061027e576101008083540402835291602001916102a9565b820191906000526020600020905b81548152906001019060200180831161028c57829003601f168201915b5050505050905090565b600460009054906101000a900473ffffffffffffffffffffffffffffffffffffffff1673ffffffffffffffffffffffffffffffffffffffff163373ffffffffffffffffffffffffffffffffffffffff1614610343576040517f08c379a000000000000000000000000000000000000000000000000000000000815260040161033a906109e8565b60405180910390fd5b60055442101580610355575047600354105b610394576040517f08c379a000000000000000000000000000000000000000000000000000000000815260040161038b90610a7a565b60405180910390fd5b600660009054906101000a900460ff16156103e4576040517f08c379a00000000000000000000000000000000000000000000000000000000081526004016103db90610b0c565b60405180910390fd5b6001600660006101000a81548160ff02191690831515021790555060004790506000811161041157600080fd5b60003373ffffffffffffffffffffffffffffffffffffffff168260405161043790610b5d565b60006040518083038185875af1925050503d8060008114610474576040519150601f19603f3d011682016040523d82523d6000602084013e610479565b606091505b50509050806104bd576040517f08c379a00000000000000000000000000000000000000000000000000000000081526004016104b490610bbe565b60405180910390fd5b7f0693a1340de4d4506f6f7d9a2c404381f0ed88bae5f06b8f4c65ace8081d39f0826040516104ec9190610841565b60405180910390a16000600660006101000a81548160ff0219169083151502179055505050565b6000600354905090565b6000600660019054906101000a900473ffffffffffffffffffffffffffffffffffffffff1673ffffffffffffffffffffffffffffffffffffffff163373ffffffffffffffffffffffffffffffffffffffff161461057957600080fd5b600160008373ffffffffffffffffffffffffffffffffffffffff1673ffffffffffffffffffffffffffffffffffffffff168152602001908152602001600020549050919050565b6005544210610604576040517f08c379a00000000000000000000000000000000000000000000000000000000081526004016105fb90610c50565b60405180910390fd5b34600160003373ffffffffffffffffffffffffffffffffffffffff1673ffffffffffffffffffffffffffffffffffffffff16815260200190815260200160002060008282546106539190610c9f565b925050819055503373ffffffffffffffffffffffffffffffffffffffff167f1bb460ccaaf70fbacfec17a376f8acbd278c1405590ffcc8ebe4b88daf4f64ad346040516106a09190610841565b60405180910390a2565b6000600260009054906101000a900473ffffffffffffffffffffffffffffffffffffffff16905090565b600047905090565b6000600160003373ffffffffffffffffffffffffffffffffffffffff1673ffffffffffffffffffffffffffffffffffffffff16815260200190815260200160002054905090565b6000600460009054906101000a900473ffffffffffffffffffffffffffffffffffffffff16905090565b600060055442101561076e57426005546107679190610cd3565b9050610773565b600090505b90565b600081519050919050565b600082825260208201905092915050565b60005b838110156107b0578082015181840152602081019050610795565b60008484015250505050565b6000601f19601f8301169050919050565b60006107d882610776565b6107e28185610781565b93506107f2818560208601610792565b6107fb816107bc565b840191505092915050565b6000602082019050818103600083015261082081846107cd565b905092915050565b6000819050919050565b61083b81610828565b82525050565b60006020820190506108566000830184610832565b92915050565b600080fd5b600073ffffffffffffffffffffffffffffffffffffffff82169050919050565b600061088c82610861565b9050919050565b61089c81610881565b81146108a757600080fd5b50565b6000813590506108b981610893565b92915050565b6000602082840312156108d5576108d461085c565b5b60006108e3848285016108aa565b91505092915050565b6108f581610881565b82525050565b600060208201905061091060008301846108ec565b92915050565b7f4e487b7100000000000000000000000000000000000000000000000000000000600052602260045260246000fd5b6000600282049050600182168061095d57607f821691505b6020821081036109705761096f610916565b5b50919050565b7f4f6e6c79207468652062656e69666963696172792063616e207769746864726160008201527f776c2066726f6d20746865206368617269747900000000000000000000000000602082015250565b60006109d2603383610781565b91506109dd82610976565b604082019050919050565b60006020820190508181036000830152610a01816109c5565b9050919050565b7f5468652074696d65206f72206d6f6e657920676f616c7320666f72207468652060008201527f636861726974792068617665206e6f74206265656e2073617469736669656400602082015250565b6000610a64603f83610781565b9150610a6f82610a08565b604082019050919050565b60006020820190508181036000830152610a9381610a57565b9050919050565b7f43616e6e6f74207769746864726177207768696c6520616e6f7468657220776960008201527f746864726177616c2069732070726f63657373696e6700000000000000000000602082015250565b6000610af6603683610781565b9150610b0182610a9a565b604082019050919050565b60006020820190508181036000830152610b2581610ae9565b9050919050565b600081905092915050565b50565b6000610b47600083610b2c565b9150610b5282610b37565b600082019050919050565b6000610b6882610b3a565b9150819050919050565b7f4661696c656420746f2073656e64000000000000000000000000000000000000600082015250565b6000610ba8600e83610781565b9150610bb382610b72565b602082019050919050565b60006020820190508181036000830152610bd781610b9b565b9050919050565b7f546865206c69766520706572696f6420666f722074686973206368617269747960008201527f2068617320656e64656400000000000000000000000000000000000000000000602082015250565b6000610c3a602a83610781565b9150610c4582610bde565b604082019050919050565b60006020820190508181036000830152610c6981610c2d565b9050919050565b7f4e487b7100000000000000000000000000000000000000000000000000000000600052601160045260246000fd5b6000610caa82610828565b9150610cb583610828565b9250828201905080821115610ccd57610ccc610c70565b5b92915050565b6000610cde82610828565b9150610ce983610828565b9250828203905081811115610d0157610d00610c70565b5b9291505056fea2646970667358221220dfe773eb00b4e5515046c843b3493ad89f4eb54bfd24622116206984f4706fce64736f6c63430008110033",
  "linkReferences": {},
  "deployedLinkReferences": {}
}