{
  "_format": "hh-sol-artifact-1",
  "contractName": "Charity",
  "sourceName": "contracts/Charity.sol",
  "abi": [
    {
      "inputs": [
        {
          "internalType": "string",
          "name": "_name",
          "type": "string"
        },
        {
          "internalType": "address",
          "name": "_beneficiary",
          "type": "address"
        },
        {
          "internalType": "uint256",
          "name": "_goal",
          "type": "uint256"
        },
        {
          "internalType": "uint256",
          "name": "_end_time",
          "type": "uint256"
        },
        {
          "internalType": "string",
          "name": "_metadata",
          "type": "string"
        },
        {
          "internalType": "address",
          "name": "_creator",
          "type": "address"
        }
      ],
      "stateMutability": "nonpayable",
      "type": "constructor"
    },
    {
      "anonymous": false,
      "inputs": [
        {
          "indexed": true,
          "internalType": "address",
          "name": "fromAddress",
          "type": "address"
        },
        {
          "indexed": false,
          "internalType": "uint256",
          "name": "amount",
          "type": "uint256"
        }
      ],
      "name": "ContributionReceived",
      "type": "event"
    },
    {
      "anonymous": false,
      "inputs": [
        {
          "indexed": false,
          "internalType": "uint256",
          "name": "amount",
          "type": "uint256"
        }
      ],
      "name": "WithdrawlSent",
      "type": "event"
    },
    {
      "inputs": [],
      "name": "get_balance",
      "outputs": [
        {
          "internalType": "uint256",
          "name": "",
          "type": "uint256"
        }
      ],
      "stateMutability": "view",
      "type": "function"
    },
    {
      "inputs": [],
      "name": "get_beneficiary",
      "outputs": [
        {
          "internalType": "address",
          "name": "",
          "type": "address"
        }
      ],
      "stateMutability": "view",
      "type": "function"
    },
    {
      "inputs": [],
      "name": "get_creator",
      "outputs": [
        {
          "internalType": "address",
          "name": "",
          "type": "address"
        }
      ],
      "stateMutability": "view",
      "type": "function"
    },
    {
      "inputs": [],
      "name": "get_goal",
      "outputs": [
        {
          "internalType": "uint256",
          "name": "",
          "type": "uint256"
        }
      ],
      "stateMutability": "view",
      "type": "function"
    },
    {
      "inputs": [],
      "name": "get_metadata",
      "outputs": [
        {
          "internalType": "string",
          "name": "",
          "type": "string"
        }
      ],
      "stateMutability": "view",
      "type": "function"
    },
    {
      "inputs": [],
      "name": "get_name",
      "outputs": [
        {
          "internalType": "string",
          "name": "",
          "type": "string"
        }
      ],
      "stateMutability": "view",
      "type": "function"
    },
    {
      "inputs": [],
      "name": "get_time_left",
      "outputs": [
        {
          "internalType": "uint256",
          "name": "",
          "type": "uint256"
        }
      ],
      "stateMutability": "view",
      "type": "function"
    },
    {
      "inputs": [],
      "name": "get_total_benificiaries",
      "outputs": [
        {
          "internalType": "uint256",
          "name": "",
          "type": "uint256"
        }
      ],
      "stateMutability": "view",
      "type": "function"
    },
    {
      "inputs": [
        {
          "internalType": "address",
          "name": "_user",
          "type": "address"
        }
      ],
      "name": "get_user_balance",
      "outputs": [
        {
          "internalType": "uint256",
          "name": "",
          "type": "uint256"
        }
      ],
      "stateMutability": "view",
      "type": "function"
    },
    {
      "inputs": [],
      "name": "get_user_balance",
      "outputs": [
        {
          "internalType": "uint256",
          "name": "",
          "type": "uint256"
        }
      ],
      "stateMutability": "view",
      "type": "function"
    },
    {
      "inputs": [],
      "name": "recieve",
      "outputs": [],
      "stateMutability": "payable",
      "type": "function"
    },
    {
      "inputs": [],
      "name": "withdrawl",
      "outputs": [],
      "stateMutability": "nonpayable",
      "type": "function"
    }
  ],
  "bytecode": "0x60806040526000600760006101000a81548160ff0219169083151502179055503480156200002c57600080fd5b50604051620016be380380620016be83398181016040528101906200005291906200039b565b8560009081620000639190620006b6565b5084600560006101000a81548173ffffffffffffffffffffffffffffffffffffffff021916908373ffffffffffffffffffffffffffffffffffffffff160217905550836004819055504283620000ba9190620007cc565b60068190555080600360006101000a81548173ffffffffffffffffffffffffffffffffffffffff021916908373ffffffffffffffffffffffffffffffffffffffff16021790555033600760016101000a81548173ffffffffffffffffffffffffffffffffffffffff021916908373ffffffffffffffffffffffffffffffffffffffff160217905550600060088190555081600190816200015b9190620006b6565b5050505050505062000807565b6000604051905090565b600080fd5b600080fd5b600080fd5b600080fd5b6000601f19601f8301169050919050565b7f4e487b7100000000000000000000000000000000000000000000000000000000600052604160045260246000fd5b620001d18262000186565b810181811067ffffffffffffffff82111715620001f357620001f262000197565b5b80604052505050565b60006200020862000168565b9050620002168282620001c6565b919050565b600067ffffffffffffffff82111562000239576200023862000197565b5b620002448262000186565b9050602081019050919050565b60005b838110156200027157808201518184015260208101905062000254565b60008484015250505050565b6000620002946200028e846200021b565b620001fc565b905082815260208101848484011115620002b357620002b262000181565b5b620002c084828562000251565b509392505050565b600082601f830112620002e057620002df6200017c565b5b8151620002f28482602086016200027d565b91505092915050565b600073ffffffffffffffffffffffffffffffffffffffff82169050919050565b60006200032882620002fb565b9050919050565b6200033a816200031b565b81146200034657600080fd5b50565b6000815190506200035a816200032f565b92915050565b6000819050919050565b620003758162000360565b81146200038157600080fd5b50565b60008151905062000395816200036a565b92915050565b60008060008060008060c08789031215620003bb57620003ba62000172565b5b600087015167ffffffffffffffff811115620003dc57620003db62000177565b5b620003ea89828a01620002c8565b9650506020620003fd89828a0162000349565b95505060406200041089828a0162000384565b94505060606200042389828a0162000384565b935050608087015167ffffffffffffffff81111562000447576200044662000177565b5b6200045589828a01620002c8565b92505060a06200046889828a0162000349565b9150509295509295509295565b600081519050919050565b7f4e487b7100000000000000000000000000000000000000000000000000000000600052602260045260246000fd5b60006002820490506001821680620004c857607f821691505b602082108103620004de57620004dd62000480565b5b50919050565b60008190508160005260206000209050919050565b60006020601f8301049050919050565b600082821b905092915050565b600060088302620005487fffffffffffffffffffffffffffffffffffffffffffffffffffffffffffffffff8262000509565b62000554868362000509565b95508019841693508086168417925050509392505050565b6000819050919050565b600062000597620005916200058b8462000360565b6200056c565b62000360565b9050919050565b6000819050919050565b620005b38362000576565b620005cb620005c2826200059e565b84845462000516565b825550505050565b600090565b620005e2620005d3565b620005ef818484620005a8565b505050565b5b8181101562000617576200060b600082620005d8565b600181019050620005f5565b5050565b601f82111562000666576200063081620004e4565b6200063b84620004f9565b810160208510156200064b578190505b620006636200065a85620004f9565b830182620005f4565b50505b505050565b600082821c905092915050565b60006200068b600019846008026200066b565b1980831691505092915050565b6000620006a6838362000678565b9150826002028217905092915050565b620006c18262000475565b67ffffffffffffffff811115620006dd57620006dc62000197565b5b620006e98254620004af565b620006f68282856200061b565b600060209050601f8311600181146200072e576000841562000719578287015190505b62000725858262000698565b86555062000795565b601f1984166200073e86620004e4565b60005b82811015620007685784890151825560018201915060208501945060208101905062000741565b8683101562000788578489015162000784601f89168262000678565b8355505b6001600288020188555050505b505050505050565b7f4e487b7100000000000000000000000000000000000000000000000000000000600052601160045260246000fd5b6000620007d98262000360565b9150620007e68362000360565b92508282019050808211156200080157620008006200079d565b5b92915050565b610ea780620008176000396000f3fe6080604052600436106100a75760003560e01c8063a9e10bf211610064578063a9e10bf2146101ac578063ace1ed07146101b6578063c1cfb99a146101e1578063d94de4eb1461020c578063d9fc907e14610237578063e07f63a114610262576100a7565b80633a525c29146100ac5780633aedfb8b146100d75780633c9c192f146100ee57806345dea629146101195780636ded41fd1461015657806386485aaa14610181575b600080fd5b3480156100b857600080fd5b506100c161028d565b6040516100ce9190610970565b60405180910390f35b3480156100e357600080fd5b506100ec61031f565b005b3480156100fa57600080fd5b5061010361057f565b60405161011091906109ab565b60405180910390f35b34801561012557600080fd5b50610140600480360381019061013b9190610a29565b610589565b60405161014d91906109ab565b60405180910390f35b34801561016257600080fd5b5061016b61062c565b60405161017891906109ab565b60405180910390f35b34801561018d57600080fd5b50610196610636565b6040516101a39190610970565b60405180910390f35b6101b46106c8565b005b3480156101c257600080fd5b506101cb610814565b6040516101d89190610a65565b60405180910390f35b3480156101ed57600080fd5b506101f661083e565b60405161020391906109ab565b60405180910390f35b34801561021857600080fd5b50610221610846565b60405161022e91906109ab565b60405180910390f35b34801561024357600080fd5b5061024c61088d565b6040516102599190610a65565b60405180910390f35b34801561026e57600080fd5b506102776108b7565b60405161028491906109ab565b60405180910390f35b60606000805461029c90610aaf565b80601f01602080910402602001604051908101604052809291908181526020018280546102c890610aaf565b80156103155780601f106102ea57610100808354040283529160200191610315565b820191906000526020600020905b8154815290600101906020018083116102f857829003601f168201915b5050505050905090565b600560009054906101000a900473ffffffffffffffffffffffffffffffffffffffff1673ffffffffffffffffffffffffffffffffffffffff163373ffffffffffffffffffffffffffffffffffffffff16146103af576040517f08c379a00000000000000000000000000000000000000000000000000000000081526004016103a690610b52565b60405180910390fd5b600654421015806103c1575047600454105b610400576040517f08c379a00000000000000000000000000000000000000000000000000000000081526004016103f790610be4565b60405180910390fd5b600760009054906101000a900460ff1615610450576040517f08c379a000000000000000000000000000000000000000000000000000000000815260040161044790610c76565b60405180910390fd5b6001600760006101000a81548160ff02191690831515021790555060004790506000811161047d57600080fd5b60003373ffffffffffffffffffffffffffffffffffffffff16826040516104a390610cc7565b60006040518083038185875af1925050503d80600081146104e0576040519150601f19603f3d011682016040523d82523d6000602084013e6104e5565b606091505b5050905080610529576040517f08c379a000000000000000000000000000000000000000000000000000000000815260040161052090610d28565b60405180910390fd5b7f0693a1340de4d4506f6f7d9a2c404381f0ed88bae5f06b8f4c65ace8081d39f08260405161055891906109ab565b60405180910390a16000600760006101000a81548160ff0219169083151502179055505050565b6000600454905090565b6000600760019054906101000a900473ffffffffffffffffffffffffffffffffffffffff1673ffffffffffffffffffffffffffffffffffffffff163373ffffffffffffffffffffffffffffffffffffffff16146105e557600080fd5b600260008373ffffffffffffffffffffffffffffffffffffffff1673ffffffffffffffffffffffffffffffffffffffff168152602001908152602001600020549050919050565b6000600854905090565b60606001805461064590610aaf565b80601f016020809104026020016040519081016040528092919081815260200182805461067190610aaf565b80156106be5780601f10610693576101008083540402835291602001916106be565b820191906000526020600020905b8154815290600101906020018083116106a157829003601f168201915b5050505050905090565b600654421061070c576040517f08c379a000000000000000000000000000000000000000000000000000000000815260040161070390610dba565b60405180910390fd5b6000600260003373ffffffffffffffffffffffffffffffffffffffff1673ffffffffffffffffffffffffffffffffffffffff168152602001908152602001600020541161076e576001600860008282546107669190610e09565b925050819055505b34600260003373ffffffffffffffffffffffffffffffffffffffff1673ffffffffffffffffffffffffffffffffffffffff16815260200190815260200160002060008282546107bd9190610e09565b925050819055503373ffffffffffffffffffffffffffffffffffffffff167f1bb460ccaaf70fbacfec17a376f8acbd278c1405590ffcc8ebe4b88daf4f64ad3460405161080a91906109ab565b60405180910390a2565b6000600360009054906101000a900473ffffffffffffffffffffffffffffffffffffffff16905090565b600047905090565b6000600260003373ffffffffffffffffffffffffffffffffffffffff1673ffffffffffffffffffffffffffffffffffffffff16815260200190815260200160002054905090565b6000600560009054906101000a900473ffffffffffffffffffffffffffffffffffffffff16905090565b60006006544210156108d857426006546108d19190610e3d565b90506108dd565b600090505b90565b600081519050919050565b600082825260208201905092915050565b60005b8381101561091a5780820151818401526020810190506108ff565b60008484015250505050565b6000601f19601f8301169050919050565b6000610942826108e0565b61094c81856108eb565b935061095c8185602086016108fc565b61096581610926565b840191505092915050565b6000602082019050818103600083015261098a8184610937565b905092915050565b6000819050919050565b6109a581610992565b82525050565b60006020820190506109c0600083018461099c565b92915050565b600080fd5b600073ffffffffffffffffffffffffffffffffffffffff82169050919050565b60006109f6826109cb565b9050919050565b610a06816109eb565b8114610a1157600080fd5b50565b600081359050610a23816109fd565b92915050565b600060208284031215610a3f57610a3e6109c6565b5b6000610a4d84828501610a14565b91505092915050565b610a5f816109eb565b82525050565b6000602082019050610a7a6000830184610a56565b92915050565b7f4e487b7100000000000000000000000000000000000000000000000000000000600052602260045260246000fd5b60006002820490506001821680610ac757607f821691505b602082108103610ada57610ad9610a80565b5b50919050565b7f4f6e6c79207468652062656e69666963696172792063616e207769746864726160008201527f776c2066726f6d20746865206368617269747900000000000000000000000000602082015250565b6000610b3c6033836108eb565b9150610b4782610ae0565b604082019050919050565b60006020820190508181036000830152610b6b81610b2f565b9050919050565b7f5468652074696d65206f72206d6f6e657920676f616c7320666f72207468652060008201527f636861726974792068617665206e6f74206265656e2073617469736669656400602082015250565b6000610bce603f836108eb565b9150610bd982610b72565b604082019050919050565b60006020820190508181036000830152610bfd81610bc1565b9050919050565b7f43616e6e6f74207769746864726177207768696c6520616e6f7468657220776960008201527f746864726177616c2069732070726f63657373696e6700000000000000000000602082015250565b6000610c606036836108eb565b9150610c6b82610c04565b604082019050919050565b60006020820190508181036000830152610c8f81610c53565b9050919050565b600081905092915050565b50565b6000610cb1600083610c96565b9150610cbc82610ca1565b600082019050919050565b6000610cd282610ca4565b9150819050919050565b7f4661696c656420746f2073656e64000000000000000000000000000000000000600082015250565b6000610d12600e836108eb565b9150610d1d82610cdc565b602082019050919050565b60006020820190508181036000830152610d4181610d05565b9050919050565b7f546865206c69766520706572696f6420666f722074686973206368617269747960008201527f2068617320656e64656400000000000000000000000000000000000000000000602082015250565b6000610da4602a836108eb565b9150610daf82610d48565b604082019050919050565b60006020820190508181036000830152610dd381610d97565b9050919050565b7f4e487b7100000000000000000000000000000000000000000000000000000000600052601160045260246000fd5b6000610e1482610992565b9150610e1f83610992565b9250828201905080821115610e3757610e36610dda565b5b92915050565b6000610e4882610992565b9150610e5383610992565b9250828203905081811115610e6b57610e6a610dda565b5b9291505056fea2646970667358221220dfb37e0c9f38f9e316f96c312b00c9430a7767d078f3b446e9b5475b83bd073c64736f6c63430008110033",
  "linkReferences": {},
  "deployedLinkReferences": {}
}