{
  "_format": "hh-sol-artifact-1",
  "contractName": "CharityChain",
  "sourceName": "contracts/CharityChain.sol",
  "abi": [
    {
      "inputs": [],
      "name": "get_charities",
      "outputs": [
        {
          "components": [
            {
              "internalType": "address",
              "name": "charity",
              "type": "address"
            },
            {
              "internalType": "string",
              "name": "title",
              "type": "string"
            }
          ],
          "internalType": "struct CharityChain.CharityInfo[]",
          "name": "",
          "type": "tuple[]"
        }
      ],
      "stateMutability": "view",
      "type": "function"
    },
    {
      "inputs": [],
      "name": "get_user_contributions",
      "outputs": [
        {
          "components": [
            {
              "internalType": "address",
              "name": "charity",
              "type": "address"
            },
            {
              "internalType": "uint256",
              "name": "amount",
              "type": "uint256"
            }
          ],
          "internalType": "struct CharityChain.UserContribution[]",
          "name": "",
          "type": "tuple[]"
        }
      ],
      "stateMutability": "view",
      "type": "function"
    },
    {
      "inputs": [],
      "name": "get_user_creations",
      "outputs": [
        {
          "internalType": "address[]",
          "name": "",
          "type": "address[]"
        }
      ],
      "stateMutability": "view",
      "type": "function"
    },
    {
      "inputs": [
        {
          "internalType": "string",
          "name": "_name",
          "type": "string"
        },
        {
          "internalType": "address",
          "name": "_beneficiary",
          "type": "address"
        },
        {
          "internalType": "uint256",
          "name": "_goal",
          "type": "uint256"
        },
        {
          "internalType": "string",
          "name": "_metadata",
          "type": "string"
        },
        {
          "internalType": "uint256",
          "name": "_end_time",
          "type": "uint256"
        }
      ],
      "name": "make_charity",
      "outputs": [
        {
          "internalType": "address",
          "name": "",
          "type": "address"
        }
      ],
      "stateMutability": "payable",
      "type": "function"
    }
  ],
  "bytecode": "0x6080604052600067ffffffffffffffff8111156200002257620000216200012c565b5b604051908082528060200260200182016040528015620000515781602001602082028036833780820191505090505b5060009080519060200190620000699291906200007e565b503480156200007757600080fd5b506200015b565b828054828255906000526020600020908101928215620000fa579160200282015b82811115620000f95782518260006101000a81548173ffffffffffffffffffffffffffffffffffffffff021916908373ffffffffffffffffffffffffffffffffffffffff160217905550916020019190600101906200009f565b5b5090506200010991906200010d565b5090565b5b80821115620001285760008160009055506001016200010e565b5090565b7f4e487b7100000000000000000000000000000000000000000000000000000000600052604160045260246000fd5b6128c7806200016b6000396000f3fe608060405260043610620000445760003560e01c806312f4b0041462000049578063147742e1146200007f57806314a1e3ed14620000af5780635feded5d14620000df575b600080fd5b62000067600480360381019062000061919062000a1f565b6200010f565b60405162000076919062000af6565b60405180910390f35b3480156200008c57600080fd5b5062000097620001c7565b604051620000a6919062000be1565b60405180910390f35b348015620000bc57600080fd5b50620000c7620003cc565b604051620000d6919062000d9f565b60405180910390f35b348015620000ec57600080fd5b50620000f7620005aa565b60405162000106919062000ec4565b60405180910390f35b60008086868685873360405162000126906200079b565b620001379695949392919062000f4b565b604051809103906000f08015801562000154573d6000803e3d6000fd5b5090506000819080600181540180825580915050600190039060005260206000200160009091909190916101000a81548173ffffffffffffffffffffffffffffffffffffffff021916908373ffffffffffffffffffffffffffffffffffffffff1602179055508091505095945050505050565b606060008080549050905060008167ffffffffffffffff811115620001f157620001f062000838565b5b604051908082528060200260200182016040528015620002205781602001602082028036833780820191505090505b50905060005b82811015620003c357600080828154811062000247576200024662000fc6565b5b9060005260206000200160009054906101000a900473ffffffffffffffffffffffffffffffffffffffff1673ffffffffffffffffffffffffffffffffffffffff1663ace1ed076040518163ffffffff1660e01b8152600401602060405180830381865afa158015620002bd573d6000803e3d6000fd5b505050506040513d601f19601f82011682018060405250810190620002e391906200100c565b90503373ffffffffffffffffffffffffffffffffffffffff168173ffffffffffffffffffffffffffffffffffffffff1603620003ac576000828154811062000330576200032f62000fc6565b5b9060005260206000200160009054906101000a900473ffffffffffffffffffffffffffffffffffffffff1683838151811062000371576200037062000fc6565b5b602002602001019073ffffffffffffffffffffffffffffffffffffffff16908173ffffffffffffffffffffffffffffffffffffffff16815250505b508080620003ba906200106d565b91505062000226565b50809250505090565b606060008080549050905060008167ffffffffffffffff811115620003f657620003f562000838565b5b6040519080825280602002602001820160405280156200043357816020015b6200041f620007a9565b815260200190600190039081620004155790505b50905060005b82811015620005a15760008082815481106200045a576200045962000fc6565b5b9060005260206000200160009054906101000a900473ffffffffffffffffffffffffffffffffffffffff1673ffffffffffffffffffffffffffffffffffffffff16633a525c296040518163ffffffff1660e01b8152600401600060405180830381865afa158015620004d0573d6000803e3d6000fd5b505050506040513d6000823e3d601f19601f82011682018060405250810190620004fb919062001138565b90506040518060400160405280600084815481106200051f576200051e62000fc6565b5b9060005260206000200160009054906101000a900473ffffffffffffffffffffffffffffffffffffffff1673ffffffffffffffffffffffffffffffffffffffff168152602001828152508383815181106200057f576200057e62000fc6565b5b602002602001018190525050808062000598906200106d565b91505062000439565b50809250505090565b606060008080549050905060008167ffffffffffffffff811115620005d457620005d362000838565b5b6040519080825280602002602001820160405280156200061157816020015b620005fd620007d9565b815260200190600190039081620005f35790505b50905060005b828110156200079257600080828154811062000638576200063762000fc6565b5b9060005260206000200160009054906101000a900473ffffffffffffffffffffffffffffffffffffffff1673ffffffffffffffffffffffffffffffffffffffff166345dea629336040518263ffffffff1660e01b81526004016200069d919062000af6565b602060405180830381865afa158015620006bb573d6000803e3d6000fd5b505050506040513d601f19601f82011682018060405250810190620006e19190620011a0565b905060008111156200077b576040518060400160405280600084815481106200070f576200070e62000fc6565b5b9060005260206000200160009054906101000a900473ffffffffffffffffffffffffffffffffffffffff1673ffffffffffffffffffffffffffffffffffffffff168152602001828152508383815181106200076f576200076e62000fc6565b5b60200260200101819052505b50808062000789906200106d565b91505062000617565b50809250505090565b6116bf80620011d383390190565b6040518060400160405280600073ffffffffffffffffffffffffffffffffffffffff168152602001606081525090565b6040518060400160405280600073ffffffffffffffffffffffffffffffffffffffff168152602001600081525090565b6000604051905090565b600080fd5b600080fd5b600080fd5b600080fd5b6000601f19601f8301169050919050565b7f4e487b7100000000000000000000000000000000000000000000000000000000600052604160045260246000fd5b620008728262000827565b810181811067ffffffffffffffff8211171562000894576200089362000838565b5b80604052505050565b6000620008a962000809565b9050620008b7828262000867565b919050565b600067ffffffffffffffff821115620008da57620008d962000838565b5b620008e58262000827565b9050602081019050919050565b82818337600083830152505050565b6000620009186200091284620008bc565b6200089d565b90508281526020810184848401111562000937576200093662000822565b5b62000944848285620008f2565b509392505050565b600082601f8301126200096457620009636200081d565b5b81356200097684826020860162000901565b91505092915050565b600073ffffffffffffffffffffffffffffffffffffffff82169050919050565b6000620009ac826200097f565b9050919050565b620009be816200099f565b8114620009ca57600080fd5b50565b600081359050620009de81620009b3565b92915050565b6000819050919050565b620009f981620009e4565b811462000a0557600080fd5b50565b60008135905062000a1981620009ee565b92915050565b600080600080600060a0868803121562000a3e5762000a3d62000813565b5b600086013567ffffffffffffffff81111562000a5f5762000a5e62000818565b5b62000a6d888289016200094c565b955050602062000a8088828901620009cd565b945050604062000a938882890162000a08565b935050606086013567ffffffffffffffff81111562000ab75762000ab662000818565b5b62000ac5888289016200094c565b925050608062000ad88882890162000a08565b9150509295509295909350565b62000af0816200099f565b82525050565b600060208201905062000b0d600083018462000ae5565b92915050565b600081519050919050565b600082825260208201905092915050565b6000819050602082019050919050565b62000b4a816200099f565b82525050565b600062000b5e838362000b3f565b60208301905092915050565b6000602082019050919050565b600062000b848262000b13565b62000b90818562000b1e565b935062000b9d8362000b2f565b8060005b8381101562000bd457815162000bb8888262000b50565b975062000bc58362000b6a565b92505060018101905062000ba1565b5085935050505092915050565b6000602082019050818103600083015262000bfd818462000b77565b905092915050565b600081519050919050565b600082825260208201905092915050565b6000819050602082019050919050565b600081519050919050565b600082825260208201905092915050565b60005b8381101562000c6d57808201518184015260208101905062000c50565b60008484015250505050565b600062000c868262000c31565b62000c92818562000c3c565b935062000ca481856020860162000c4d565b62000caf8162000827565b840191505092915050565b600060408301600083015162000cd4600086018262000b3f565b506020830151848203602086015262000cee828262000c79565b9150508091505092915050565b600062000d09838362000cba565b905092915050565b6000602082019050919050565b600062000d2b8262000c05565b62000d37818562000c10565b93508360208202850162000d4b8562000c21565b8060005b8581101562000d8d578484038952815162000d6b858262000cfb565b945062000d788362000d11565b925060208a0199505060018101905062000d4f565b50829750879550505050505092915050565b6000602082019050818103600083015262000dbb818462000d1e565b905092915050565b600081519050919050565b600082825260208201905092915050565b6000819050602082019050919050565b62000dfa81620009e4565b82525050565b60408201600082015162000e18600085018262000b3f565b50602082015162000e2d602085018262000def565b50505050565b600062000e41838362000e00565b60408301905092915050565b6000602082019050919050565b600062000e678262000dc3565b62000e73818562000dce565b935062000e808362000ddf565b8060005b8381101562000eb757815162000e9b888262000e33565b975062000ea88362000e4d565b92505060018101905062000e84565b5085935050505092915050565b6000602082019050818103600083015262000ee0818462000e5a565b905092915050565b600082825260208201905092915050565b600062000f068262000c31565b62000f12818562000ee8565b935062000f2481856020860162000c4d565b62000f2f8162000827565b840191505092915050565b62000f4581620009e4565b82525050565b600060c082019050818103600083015262000f67818962000ef9565b905062000f78602083018862000ae5565b62000f87604083018762000f3a565b62000f96606083018662000f3a565b818103608083015262000faa818562000ef9565b905062000fbb60a083018462000ae5565b979650505050505050565b7f4e487b7100000000000000000000000000000000000000000000000000000000600052603260045260246000fd5b6000815190506200100681620009b3565b92915050565b60006020828403121562001025576200102462000813565b5b6000620010358482850162000ff5565b91505092915050565b7f4e487b7100000000000000000000000000000000000000000000000000000000600052601160045260246000fd5b60006200107a82620009e4565b91507fffffffffffffffffffffffffffffffffffffffffffffffffffffffffffffffff8203620010af57620010ae6200103e565b5b600182019050919050565b6000620010d1620010cb84620008bc565b6200089d565b905082815260208101848484011115620010f057620010ef62000822565b5b620010fd84828562000c4d565b509392505050565b600082601f8301126200111d576200111c6200081d565b5b81516200112f848260208601620010ba565b91505092915050565b60006020828403121562001151576200115062000813565b5b600082015167ffffffffffffffff81111562001172576200117162000818565b5b620011808482850162001105565b91505092915050565b6000815190506200119a81620009ee565b92915050565b600060208284031215620011b957620011b862000813565b5b6000620011c98482850162001189565b9150509291505056fe60806040526000600760006101000a81548160ff0219169083151502179055503480156200002c57600080fd5b50604051620016bf380380620016bf83398181016040528101906200005291906200039b565b8560009081620000639190620006b6565b5084600560006101000a81548173ffffffffffffffffffffffffffffffffffffffff021916908373ffffffffffffffffffffffffffffffffffffffff160217905550836004819055504283620000ba9190620007cc565b60068190555080600360006101000a81548173ffffffffffffffffffffffffffffffffffffffff021916908373ffffffffffffffffffffffffffffffffffffffff16021790555033600760016101000a81548173ffffffffffffffffffffffffffffffffffffffff021916908373ffffffffffffffffffffffffffffffffffffffff160217905550600060088190555081600190816200015b9190620006b6565b5050505050505062000807565b6000604051905090565b600080fd5b600080fd5b600080fd5b600080fd5b6000601f19601f8301169050919050565b7f4e487b7100000000000000000000000000000000000000000000000000000000600052604160045260246000fd5b620001d18262000186565b810181811067ffffffffffffffff82111715620001f357620001f262000197565b5b80604052505050565b60006200020862000168565b9050620002168282620001c6565b919050565b600067ffffffffffffffff82111562000239576200023862000197565b5b620002448262000186565b9050602081019050919050565b60005b838110156200027157808201518184015260208101905062000254565b60008484015250505050565b6000620002946200028e846200021b565b620001fc565b905082815260208101848484011115620002b357620002b262000181565b5b620002c084828562000251565b509392505050565b600082601f830112620002e057620002df6200017c565b5b8151620002f28482602086016200027d565b91505092915050565b600073ffffffffffffffffffffffffffffffffffffffff82169050919050565b60006200032882620002fb565b9050919050565b6200033a816200031b565b81146200034657600080fd5b50565b6000815190506200035a816200032f565b92915050565b6000819050919050565b620003758162000360565b81146200038157600080fd5b50565b60008151905062000395816200036a565b92915050565b60008060008060008060c08789031215620003bb57620003ba62000172565b5b600087015167ffffffffffffffff811115620003dc57620003db62000177565b5b620003ea89828a01620002c8565b9650506020620003fd89828a0162000349565b95505060406200041089828a0162000384565b94505060606200042389828a0162000384565b935050608087015167ffffffffffffffff81111562000447576200044662000177565b5b6200045589828a01620002c8565b92505060a06200046889828a0162000349565b9150509295509295509295565b600081519050919050565b7f4e487b7100000000000000000000000000000000000000000000000000000000600052602260045260246000fd5b60006002820490506001821680620004c857607f821691505b602082108103620004de57620004dd62000480565b5b50919050565b60008190508160005260206000209050919050565b60006020601f8301049050919050565b600082821b905092915050565b600060088302620005487fffffffffffffffffffffffffffffffffffffffffffffffffffffffffffffffff8262000509565b62000554868362000509565b95508019841693508086168417925050509392505050565b6000819050919050565b600062000597620005916200058b8462000360565b6200056c565b62000360565b9050919050565b6000819050919050565b620005b38362000576565b620005cb620005c2826200059e565b84845462000516565b825550505050565b600090565b620005e2620005d3565b620005ef818484620005a8565b505050565b5b8181101562000617576200060b600082620005d8565b600181019050620005f5565b5050565b601f82111562000666576200063081620004e4565b6200063b84620004f9565b810160208510156200064b578190505b620006636200065a85620004f9565b830182620005f4565b50505b505050565b600082821c905092915050565b60006200068b600019846008026200066b565b1980831691505092915050565b6000620006a6838362000678565b9150826002028217905092915050565b620006c18262000475565b67ffffffffffffffff811115620006dd57620006dc62000197565b5b620006e98254620004af565b620006f68282856200061b565b600060209050601f8311600181146200072e576000841562000719578287015190505b62000725858262000698565b86555062000795565b601f1984166200073e86620004e4565b60005b82811015620007685784890151825560018201915060208501945060208101905062000741565b8683101562000788578489015162000784601f89168262000678565b8355505b6001600288020188555050505b505050505050565b7f4e487b7100000000000000000000000000000000000000000000000000000000600052601160045260246000fd5b6000620007d98262000360565b9150620007e68362000360565b92508282019050808211156200080157620008006200079d565b5b92915050565b610ea880620008176000396000f3fe6080604052600436106100a75760003560e01c8063a9e10bf211610064578063a9e10bf2146101ac578063ace1ed07146101b6578063c1cfb99a146101e1578063d94de4eb1461020c578063d9fc907e14610237578063e07f63a114610262576100a7565b80633a525c29146100ac5780633aedfb8b146100d75780633c9c192f146100ee57806345dea629146101195780636ded41fd1461015657806386485aaa14610181575b600080fd5b3480156100b857600080fd5b506100c161028d565b6040516100ce9190610971565b60405180910390f35b3480156100e357600080fd5b506100ec61031f565b005b3480156100fa57600080fd5b50610103610580565b60405161011091906109ac565b60405180910390f35b34801561012557600080fd5b50610140600480360381019061013b9190610a2a565b61058a565b60405161014d91906109ac565b60405180910390f35b34801561016257600080fd5b5061016b61062d565b60405161017891906109ac565b60405180910390f35b34801561018d57600080fd5b50610196610637565b6040516101a39190610971565b60405180910390f35b6101b46106c9565b005b3480156101c257600080fd5b506101cb610815565b6040516101d89190610a66565b60405180910390f35b3480156101ed57600080fd5b506101f661083f565b60405161020391906109ac565b60405180910390f35b34801561021857600080fd5b50610221610847565b60405161022e91906109ac565b60405180910390f35b34801561024357600080fd5b5061024c61088e565b6040516102599190610a66565b60405180910390f35b34801561026e57600080fd5b506102776108b8565b60405161028491906109ac565b60405180910390f35b60606000805461029c90610ab0565b80601f01602080910402602001604051908101604052809291908181526020018280546102c890610ab0565b80156103155780601f106102ea57610100808354040283529160200191610315565b820191906000526020600020905b8154815290600101906020018083116102f857829003601f168201915b5050505050905090565b600560009054906101000a900473ffffffffffffffffffffffffffffffffffffffff1673ffffffffffffffffffffffffffffffffffffffff163373ffffffffffffffffffffffffffffffffffffffff16146103af576040517f08c379a00000000000000000000000000000000000000000000000000000000081526004016103a690610b53565b60405180910390fd5b600654421015806103c257504760045411155b610401576040517f08c379a00000000000000000000000000000000000000000000000000000000081526004016103f890610be5565b60405180910390fd5b600760009054906101000a900460ff1615610451576040517f08c379a000000000000000000000000000000000000000000000000000000000815260040161044890610c77565b60405180910390fd5b6001600760006101000a81548160ff02191690831515021790555060004790506000811161047e57600080fd5b60003373ffffffffffffffffffffffffffffffffffffffff16826040516104a490610cc8565b60006040518083038185875af1925050503d80600081146104e1576040519150601f19603f3d011682016040523d82523d6000602084013e6104e6565b606091505b505090508061052a576040517f08c379a000000000000000000000000000000000000000000000000000000000815260040161052190610d29565b60405180910390fd5b7f0693a1340de4d4506f6f7d9a2c404381f0ed88bae5f06b8f4c65ace8081d39f08260405161055991906109ac565b60405180910390a16000600760006101000a81548160ff0219169083151502179055505050565b6000600454905090565b6000600760019054906101000a900473ffffffffffffffffffffffffffffffffffffffff1673ffffffffffffffffffffffffffffffffffffffff163373ffffffffffffffffffffffffffffffffffffffff16146105e657600080fd5b600260008373ffffffffffffffffffffffffffffffffffffffff1673ffffffffffffffffffffffffffffffffffffffff168152602001908152602001600020549050919050565b6000600854905090565b60606001805461064690610ab0565b80601f016020809104026020016040519081016040528092919081815260200182805461067290610ab0565b80156106bf5780601f10610694576101008083540402835291602001916106bf565b820191906000526020600020905b8154815290600101906020018083116106a257829003601f168201915b5050505050905090565b600654421061070d576040517f08c379a000000000000000000000000000000000000000000000000000000000815260040161070490610dbb565b60405180910390fd5b6000600260003373ffffffffffffffffffffffffffffffffffffffff1673ffffffffffffffffffffffffffffffffffffffff168152602001908152602001600020541161076f576001600860008282546107679190610e0a565b925050819055505b34600260003373ffffffffffffffffffffffffffffffffffffffff1673ffffffffffffffffffffffffffffffffffffffff16815260200190815260200160002060008282546107be9190610e0a565b925050819055503373ffffffffffffffffffffffffffffffffffffffff167f1bb460ccaaf70fbacfec17a376f8acbd278c1405590ffcc8ebe4b88daf4f64ad3460405161080b91906109ac565b60405180910390a2565b6000600360009054906101000a900473ffffffffffffffffffffffffffffffffffffffff16905090565b600047905090565b6000600260003373ffffffffffffffffffffffffffffffffffffffff1673ffffffffffffffffffffffffffffffffffffffff16815260200190815260200160002054905090565b6000600560009054906101000a900473ffffffffffffffffffffffffffffffffffffffff16905090565b60006006544210156108d957426006546108d29190610e3e565b90506108de565b600090505b90565b600081519050919050565b600082825260208201905092915050565b60005b8381101561091b578082015181840152602081019050610900565b60008484015250505050565b6000601f19601f8301169050919050565b6000610943826108e1565b61094d81856108ec565b935061095d8185602086016108fd565b61096681610927565b840191505092915050565b6000602082019050818103600083015261098b8184610938565b905092915050565b6000819050919050565b6109a681610993565b82525050565b60006020820190506109c1600083018461099d565b92915050565b600080fd5b600073ffffffffffffffffffffffffffffffffffffffff82169050919050565b60006109f7826109cc565b9050919050565b610a07816109ec565b8114610a1257600080fd5b50565b600081359050610a24816109fe565b92915050565b600060208284031215610a4057610a3f6109c7565b5b6000610a4e84828501610a15565b91505092915050565b610a60816109ec565b82525050565b6000602082019050610a7b6000830184610a57565b92915050565b7f4e487b7100000000000000000000000000000000000000000000000000000000600052602260045260246000fd5b60006002820490506001821680610ac857607f821691505b602082108103610adb57610ada610a81565b5b50919050565b7f4f6e6c79207468652062656e69666963696172792063616e207769746864726160008201527f776c2066726f6d20746865206368617269747900000000000000000000000000602082015250565b6000610b3d6033836108ec565b9150610b4882610ae1565b604082019050919050565b60006020820190508181036000830152610b6c81610b30565b9050919050565b7f5468652074696d65206f72206d6f6e657920676f616c7320666f72207468652060008201527f636861726974792068617665206e6f74206265656e2073617469736669656400602082015250565b6000610bcf603f836108ec565b9150610bda82610b73565b604082019050919050565b60006020820190508181036000830152610bfe81610bc2565b9050919050565b7f43616e6e6f74207769746864726177207768696c6520616e6f7468657220776960008201527f746864726177616c2069732070726f63657373696e6700000000000000000000602082015250565b6000610c616036836108ec565b9150610c6c82610c05565b604082019050919050565b60006020820190508181036000830152610c9081610c54565b9050919050565b600081905092915050565b50565b6000610cb2600083610c97565b9150610cbd82610ca2565b600082019050919050565b6000610cd382610ca5565b9150819050919050565b7f4661696c656420746f2073656e64000000000000000000000000000000000000600082015250565b6000610d13600e836108ec565b9150610d1e82610cdd565b602082019050919050565b60006020820190508181036000830152610d4281610d06565b9050919050565b7f546865206c69766520706572696f6420666f722074686973206368617269747960008201527f2068617320656e64656400000000000000000000000000000000000000000000602082015250565b6000610da5602a836108ec565b9150610db082610d49565b604082019050919050565b60006020820190508181036000830152610dd481610d98565b9050919050565b7f4e487b7100000000000000000000000000000000000000000000000000000000600052601160045260246000fd5b6000610e1582610993565b9150610e2083610993565b9250828201905080821115610e3857610e37610ddb565b5b92915050565b6000610e4982610993565b9150610e5483610993565b9250828203905081811115610e6c57610e6b610ddb565b5b9291505056fea2646970667358221220ddedd733d74a7edf1f520e76b74cfc3a60ad50686921a244db0faa939d5c770d64736f6c63430008110033a2646970667358221220ec5fa3386abf661fc78407a2cc0c0794d30d082d55fd680ad8cfe202d5c0cd2e64736f6c63430008110033",
  "linkReferences": {},
  "deployedLinkReferences": {}
}