{
  "_format": "hh-sol-artifact-1",
  "contractName": "CharityChain",
  "sourceName": "contracts/CharityChain.sol",
  "abi": [
    {
      "inputs": [],
      "name": "get_charities",
      "outputs": [
        {
          "components": [
            {
              "internalType": "address",
              "name": "charity",
              "type": "address"
            },
            {
              "internalType": "string",
              "name": "title",
              "type": "string"
            }
          ],
          "internalType": "struct CharityChain.CharityInfo[]",
          "name": "",
          "type": "tuple[]"
        }
      ],
      "stateMutability": "view",
      "type": "function"
    },
    {
      "inputs": [],
      "name": "get_user_contributions",
      "outputs": [
        {
          "components": [
            {
              "internalType": "address",
              "name": "charity",
              "type": "address"
            },
            {
              "internalType": "uint256",
              "name": "amount",
              "type": "uint256"
            }
          ],
          "internalType": "struct CharityChain.UserContribution[]",
          "name": "",
          "type": "tuple[]"
        }
      ],
      "stateMutability": "view",
      "type": "function"
    },
    {
      "inputs": [],
      "name": "get_user_creations",
      "outputs": [
        {
          "internalType": "address[]",
          "name": "",
          "type": "address[]"
        }
      ],
      "stateMutability": "view",
      "type": "function"
    },
    {
      "inputs": [
        {
          "internalType": "string",
          "name": "_name",
          "type": "string"
        },
        {
          "internalType": "address",
          "name": "_beneficiary",
          "type": "address"
        },
        {
          "internalType": "uint256",
          "name": "_goal",
          "type": "uint256"
        },
        {
          "internalType": "uint256",
          "name": "_end_time",
          "type": "uint256"
        }
      ],
      "name": "make_charity",
      "outputs": [
        {
          "internalType": "address",
          "name": "",
          "type": "address"
        }
      ],
      "stateMutability": "payable",
      "type": "function"
    }
  ],
  "bytecode": "0x6080604052600067ffffffffffffffff8111156200002257620000216200012c565b5b604051908082528060200260200182016040528015620000515781602001602082028036833780820191505090505b5060009080519060200190620000699291906200007e565b503480156200007757600080fd5b506200015b565b828054828255906000526020600020908101928215620000fa579160200282015b82811115620000f95782518260006101000a81548173ffffffffffffffffffffffffffffffffffffffff021916908373ffffffffffffffffffffffffffffffffffffffff160217905550916020019190600101906200009f565b5b5090506200010991906200010d565b5090565b5b80821115620001285760008160009055506001016200010e565b5090565b7f4e487b7100000000000000000000000000000000000000000000000000000000600052604160045260246000fd5b612769806200016b6000396000f3fe608060405260043610620000445760003560e01c8063147742e1146200004957806314a1e3ed146200007957806319d2e43714620000a95780635feded5d14620000df575b600080fd5b3480156200005657600080fd5b50620000616200010f565b60405162000070919062000908565b60405180910390f35b3480156200008657600080fd5b506200009162000314565b604051620000a0919062000ad7565b60405180910390f35b620000c76004803603810190620000c1919062000ccc565b620004f2565b604051620000d6919062000d6e565b60405180910390f35b348015620000ec57600080fd5b50620000f7620005a7565b60405162000106919062000e8c565b60405180910390f35b606060008080549050905060008167ffffffffffffffff81111562000139576200013862000b19565b5b604051908082528060200260200182016040528015620001685781602001602082028036833780820191505090505b50905060005b828110156200030b5760008082815481106200018f576200018e62000eb0565b5b9060005260206000200160009054906101000a900473ffffffffffffffffffffffffffffffffffffffff1673ffffffffffffffffffffffffffffffffffffffff1663ace1ed076040518163ffffffff1660e01b8152600401602060405180830381865afa15801562000205573d6000803e3d6000fd5b505050506040513d601f19601f820116820180604052508101906200022b919062000ef6565b90503373ffffffffffffffffffffffffffffffffffffffff168173ffffffffffffffffffffffffffffffffffffffff1603620002f4576000828154811062000278576200027762000eb0565b5b9060005260206000200160009054906101000a900473ffffffffffffffffffffffffffffffffffffffff16838381518110620002b957620002b862000eb0565b5b602002602001019073ffffffffffffffffffffffffffffffffffffffff16908173ffffffffffffffffffffffffffffffffffffffff16815250505b508080620003029062000f57565b9150506200016e565b50809250505090565b606060008080549050905060008167ffffffffffffffff8111156200033e576200033d62000b19565b5b6040519080825280602002602001820160405280156200037b57816020015b6200036762000798565b8152602001906001900390816200035d5790505b50905060005b82811015620004e9576000808281548110620003a257620003a162000eb0565b5b9060005260206000200160009054906101000a900473ffffffffffffffffffffffffffffffffffffffff1673ffffffffffffffffffffffffffffffffffffffff16633a525c296040518163ffffffff1660e01b8152600401600060405180830381865afa15801562000418573d6000803e3d6000fd5b505050506040513d6000823e3d601f19601f8201168201806040525081019062000443919062001022565b905060405180604001604052806000848154811062000467576200046662000eb0565b5b9060005260206000200160009054906101000a900473ffffffffffffffffffffffffffffffffffffffff1673ffffffffffffffffffffffffffffffffffffffff16815260200182815250838381518110620004c757620004c662000eb0565b5b6020026020010181905250508080620004e09062000f57565b91505062000381565b50809250505090565b60008085858585336040516200050890620007c8565b62000518959493929190620010d6565b604051809103906000f08015801562000535573d6000803e3d6000fd5b5090506000819080600181540180825580915050600190039060005260206000200160009091909190916101000a81548173ffffffffffffffffffffffffffffffffffffffff021916908373ffffffffffffffffffffffffffffffffffffffff16021790555080915050949350505050565b606060008080549050905060008167ffffffffffffffff811115620005d157620005d062000b19565b5b6040519080825280602002602001820160405280156200060e57816020015b620005fa620007d6565b815260200190600190039081620005f05790505b50905060005b828110156200078f57600080828154811062000635576200063462000eb0565b5b9060005260206000200160009054906101000a900473ffffffffffffffffffffffffffffffffffffffff1673ffffffffffffffffffffffffffffffffffffffff166345dea629336040518263ffffffff1660e01b81526004016200069a919062000d6e565b602060405180830381865afa158015620006b8573d6000803e3d6000fd5b505050506040513d601f19601f82011682018060405250810190620006de919062001151565b9050600081111562000778576040518060400160405280600084815481106200070c576200070b62000eb0565b5b9060005260206000200160009054906101000a900473ffffffffffffffffffffffffffffffffffffffff1673ffffffffffffffffffffffffffffffffffffffff168152602001828152508383815181106200076c576200076b62000eb0565b5b60200260200101819052505b508080620007869062000f57565b91505062000614565b50809250505090565b6040518060400160405280600073ffffffffffffffffffffffffffffffffffffffff168152602001606081525090565b6115b0806200118483390190565b6040518060400160405280600073ffffffffffffffffffffffffffffffffffffffff168152602001600081525090565b600081519050919050565b600082825260208201905092915050565b6000819050602082019050919050565b600073ffffffffffffffffffffffffffffffffffffffff82169050919050565b60006200085f8262000832565b9050919050565b620008718162000852565b82525050565b600062000885838362000866565b60208301905092915050565b6000602082019050919050565b6000620008ab8262000806565b620008b7818562000811565b9350620008c48362000822565b8060005b83811015620008fb578151620008df888262000877565b9750620008ec8362000891565b925050600181019050620008c8565b5085935050505092915050565b600060208201905081810360008301526200092481846200089e565b905092915050565b600081519050919050565b600082825260208201905092915050565b6000819050602082019050919050565b600081519050919050565b600082825260208201905092915050565b60005b838110156200099457808201518184015260208101905062000977565b60008484015250505050565b6000601f19601f8301169050919050565b6000620009be8262000958565b620009ca818562000963565b9350620009dc81856020860162000974565b620009e781620009a0565b840191505092915050565b600060408301600083015162000a0c600086018262000866565b506020830151848203602086015262000a268282620009b1565b9150508091505092915050565b600062000a418383620009f2565b905092915050565b6000602082019050919050565b600062000a63826200092c565b62000a6f818562000937565b93508360208202850162000a838562000948565b8060005b8581101562000ac5578484038952815162000aa3858262000a33565b945062000ab08362000a49565b925060208a0199505060018101905062000a87565b50829750879550505050505092915050565b6000602082019050818103600083015262000af3818462000a56565b905092915050565b6000604051905090565b600080fd5b600080fd5b600080fd5b600080fd5b7f4e487b7100000000000000000000000000000000000000000000000000000000600052604160045260246000fd5b62000b5382620009a0565b810181811067ffffffffffffffff8211171562000b755762000b7462000b19565b5b80604052505050565b600062000b8a62000afb565b905062000b98828262000b48565b919050565b600067ffffffffffffffff82111562000bbb5762000bba62000b19565b5b62000bc682620009a0565b9050602081019050919050565b82818337600083830152505050565b600062000bf962000bf38462000b9d565b62000b7e565b90508281526020810184848401111562000c185762000c1762000b14565b5b62000c2584828562000bd3565b509392505050565b600082601f83011262000c455762000c4462000b0f565b5b813562000c5784826020860162000be2565b91505092915050565b62000c6b8162000852565b811462000c7757600080fd5b50565b60008135905062000c8b8162000c60565b92915050565b6000819050919050565b62000ca68162000c91565b811462000cb257600080fd5b50565b60008135905062000cc68162000c9b565b92915050565b6000806000806080858703121562000ce95762000ce862000b05565b5b600085013567ffffffffffffffff81111562000d0a5762000d0962000b0a565b5b62000d188782880162000c2d565b945050602062000d2b8782880162000c7a565b935050604062000d3e8782880162000cb5565b925050606062000d518782880162000cb5565b91505092959194509250565b62000d688162000852565b82525050565b600060208201905062000d85600083018462000d5d565b92915050565b600081519050919050565b600082825260208201905092915050565b6000819050602082019050919050565b62000dc28162000c91565b82525050565b60408201600082015162000de0600085018262000866565b50602082015162000df5602085018262000db7565b50505050565b600062000e09838362000dc8565b60408301905092915050565b6000602082019050919050565b600062000e2f8262000d8b565b62000e3b818562000d96565b935062000e488362000da7565b8060005b8381101562000e7f57815162000e63888262000dfb565b975062000e708362000e15565b92505060018101905062000e4c565b5085935050505092915050565b6000602082019050818103600083015262000ea8818462000e22565b905092915050565b7f4e487b7100000000000000000000000000000000000000000000000000000000600052603260045260246000fd5b60008151905062000ef08162000c60565b92915050565b60006020828403121562000f0f5762000f0e62000b05565b5b600062000f1f8482850162000edf565b91505092915050565b7f4e487b7100000000000000000000000000000000000000000000000000000000600052601160045260246000fd5b600062000f648262000c91565b91507fffffffffffffffffffffffffffffffffffffffffffffffffffffffffffffffff820362000f995762000f9862000f28565b5b600182019050919050565b600062000fbb62000fb58462000b9d565b62000b7e565b90508281526020810184848401111562000fda5762000fd962000b14565b5b62000fe784828562000974565b509392505050565b600082601f83011262001007576200100662000b0f565b5b81516200101984826020860162000fa4565b91505092915050565b6000602082840312156200103b576200103a62000b05565b5b600082015167ffffffffffffffff8111156200105c576200105b62000b0a565b5b6200106a8482850162000fef565b91505092915050565b600082825260208201905092915050565b6000620010918262000958565b6200109d818562001073565b9350620010af81856020860162000974565b620010ba81620009a0565b840191505092915050565b620010d08162000c91565b82525050565b600060a0820190508181036000830152620010f2818862001084565b905062001103602083018762000d5d565b620011126040830186620010c5565b620011216060830185620010c5565b62001130608083018462000d5d565b9695505050505050565b6000815190506200114b8162000c9b565b92915050565b6000602082840312156200116a576200116962000b05565b5b60006200117a848285016200113a565b9150509291505056fe60806040526000600660006101000a81548160ff0219169083151502179055503480156200002c57600080fd5b50604051620015b0380380620015b0833981810160405281019062000052919062000388565b846000908162000063919062000670565b5083600460006101000a81548173ffffffffffffffffffffffffffffffffffffffff021916908373ffffffffffffffffffffffffffffffffffffffff160217905550826003819055504282620000ba919062000786565b60058190555080600260006101000a81548173ffffffffffffffffffffffffffffffffffffffff021916908373ffffffffffffffffffffffffffffffffffffffff16021790555033600660016101000a81548173ffffffffffffffffffffffffffffffffffffffff021916908373ffffffffffffffffffffffffffffffffffffffff16021790555060006007819055505050505050620007c1565b6000604051905090565b600080fd5b600080fd5b600080fd5b600080fd5b6000601f19601f8301169050919050565b7f4e487b7100000000000000000000000000000000000000000000000000000000600052604160045260246000fd5b620001be8262000173565b810181811067ffffffffffffffff82111715620001e057620001df62000184565b5b80604052505050565b6000620001f562000155565b9050620002038282620001b3565b919050565b600067ffffffffffffffff82111562000226576200022562000184565b5b620002318262000173565b9050602081019050919050565b60005b838110156200025e57808201518184015260208101905062000241565b60008484015250505050565b6000620002816200027b8462000208565b620001e9565b905082815260208101848484011115620002a0576200029f6200016e565b5b620002ad8482856200023e565b509392505050565b600082601f830112620002cd57620002cc62000169565b5b8151620002df8482602086016200026a565b91505092915050565b600073ffffffffffffffffffffffffffffffffffffffff82169050919050565b60006200031582620002e8565b9050919050565b620003278162000308565b81146200033357600080fd5b50565b60008151905062000347816200031c565b92915050565b6000819050919050565b62000362816200034d565b81146200036e57600080fd5b50565b600081519050620003828162000357565b92915050565b600080600080600060a08688031215620003a757620003a66200015f565b5b600086015167ffffffffffffffff811115620003c857620003c762000164565b5b620003d688828901620002b5565b9550506020620003e98882890162000336565b9450506040620003fc8882890162000371565b93505060606200040f8882890162000371565b9250506080620004228882890162000336565b9150509295509295909350565b600081519050919050565b7f4e487b7100000000000000000000000000000000000000000000000000000000600052602260045260246000fd5b600060028204905060018216806200048257607f821691505b6020821081036200049857620004976200043a565b5b50919050565b60008190508160005260206000209050919050565b60006020601f8301049050919050565b600082821b905092915050565b600060088302620005027fffffffffffffffffffffffffffffffffffffffffffffffffffffffffffffffff82620004c3565b6200050e8683620004c3565b95508019841693508086168417925050509392505050565b6000819050919050565b6000620005516200054b62000545846200034d565b62000526565b6200034d565b9050919050565b6000819050919050565b6200056d8362000530565b620005856200057c8262000558565b848454620004d0565b825550505050565b600090565b6200059c6200058d565b620005a981848462000562565b505050565b5b81811015620005d157620005c560008262000592565b600181019050620005af565b5050565b601f8211156200062057620005ea816200049e565b620005f584620004b3565b8101602085101562000605578190505b6200061d6200061485620004b3565b830182620005ae565b50505b505050565b600082821c905092915050565b6000620006456000198460080262000625565b1980831691505092915050565b600062000660838362000632565b9150826002028217905092915050565b6200067b826200042f565b67ffffffffffffffff81111562000697576200069662000184565b5b620006a3825462000469565b620006b0828285620005d5565b600060209050601f831160018114620006e85760008415620006d3578287015190505b620006df858262000652565b8655506200074f565b601f198416620006f8866200049e565b60005b828110156200072257848901518255600182019150602085019450602081019050620006fb565b868310156200074257848901516200073e601f89168262000632565b8355505b6001600288020188555050505b505050505050565b7f4e487b7100000000000000000000000000000000000000000000000000000000600052601160045260246000fd5b600062000793826200034d565b9150620007a0836200034d565b9250828201905080821115620007bb57620007ba62000757565b5b92915050565b610ddf80620007d16000396000f3fe60806040526004361061009c5760003560e01c8063a9e10bf211610064578063a9e10bf214610176578063ace1ed0714610180578063c1cfb99a146101ab578063d94de4eb146101d6578063d9fc907e14610201578063e07f63a11461022c5761009c565b80633a525c29146100a15780633aedfb8b146100cc5780633c9c192f146100e357806345dea6291461010e5780636ded41fd1461014b575b600080fd5b3480156100ad57600080fd5b506100b6610257565b6040516100c391906108a8565b60405180910390f35b3480156100d857600080fd5b506100e16102e9565b005b3480156100ef57600080fd5b506100f8610549565b60405161010591906108e3565b60405180910390f35b34801561011a57600080fd5b5061013560048036038101906101309190610961565b610553565b60405161014291906108e3565b60405180910390f35b34801561015757600080fd5b506101606105f6565b60405161016d91906108e3565b60405180910390f35b61017e610600565b005b34801561018c57600080fd5b5061019561074c565b6040516101a2919061099d565b60405180910390f35b3480156101b757600080fd5b506101c0610776565b6040516101cd91906108e3565b60405180910390f35b3480156101e257600080fd5b506101eb61077e565b6040516101f891906108e3565b60405180910390f35b34801561020d57600080fd5b506102166107c5565b604051610223919061099d565b60405180910390f35b34801561023857600080fd5b506102416107ef565b60405161024e91906108e3565b60405180910390f35b606060008054610266906109e7565b80601f0160208091040260200160405190810160405280929190818152602001828054610292906109e7565b80156102df5780601f106102b4576101008083540402835291602001916102df565b820191906000526020600020905b8154815290600101906020018083116102c257829003601f168201915b5050505050905090565b600460009054906101000a900473ffffffffffffffffffffffffffffffffffffffff1673ffffffffffffffffffffffffffffffffffffffff163373ffffffffffffffffffffffffffffffffffffffff1614610379576040517f08c379a000000000000000000000000000000000000000000000000000000000815260040161037090610a8a565b60405180910390fd5b6005544210158061038b575047600354105b6103ca576040517f08c379a00000000000000000000000000000000000000000000000000000000081526004016103c190610b1c565b60405180910390fd5b600660009054906101000a900460ff161561041a576040517f08c379a000000000000000000000000000000000000000000000000000000000815260040161041190610bae565b60405180910390fd5b6001600660006101000a81548160ff02191690831515021790555060004790506000811161044757600080fd5b60003373ffffffffffffffffffffffffffffffffffffffff168260405161046d90610bff565b60006040518083038185875af1925050503d80600081146104aa576040519150601f19603f3d011682016040523d82523d6000602084013e6104af565b606091505b50509050806104f3576040517f08c379a00000000000000000000000000000000000000000000000000000000081526004016104ea90610c60565b60405180910390fd5b7f0693a1340de4d4506f6f7d9a2c404381f0ed88bae5f06b8f4c65ace8081d39f08260405161052291906108e3565b60405180910390a16000600660006101000a81548160ff0219169083151502179055505050565b6000600354905090565b6000600660019054906101000a900473ffffffffffffffffffffffffffffffffffffffff1673ffffffffffffffffffffffffffffffffffffffff163373ffffffffffffffffffffffffffffffffffffffff16146105af57600080fd5b600160008373ffffffffffffffffffffffffffffffffffffffff1673ffffffffffffffffffffffffffffffffffffffff168152602001908152602001600020549050919050565b6000600754905090565b6005544210610644576040517f08c379a000000000000000000000000000000000000000000000000000000000815260040161063b90610cf2565b60405180910390fd5b6000600160003373ffffffffffffffffffffffffffffffffffffffff1673ffffffffffffffffffffffffffffffffffffffff16815260200190815260200160002054116106a65760016007600082825461069e9190610d41565b925050819055505b34600160003373ffffffffffffffffffffffffffffffffffffffff1673ffffffffffffffffffffffffffffffffffffffff16815260200190815260200160002060008282546106f59190610d41565b925050819055503373ffffffffffffffffffffffffffffffffffffffff167f1bb460ccaaf70fbacfec17a376f8acbd278c1405590ffcc8ebe4b88daf4f64ad3460405161074291906108e3565b60405180910390a2565b6000600260009054906101000a900473ffffffffffffffffffffffffffffffffffffffff16905090565b600047905090565b6000600160003373ffffffffffffffffffffffffffffffffffffffff1673ffffffffffffffffffffffffffffffffffffffff16815260200190815260200160002054905090565b6000600460009054906101000a900473ffffffffffffffffffffffffffffffffffffffff16905090565b600060055442101561081057426005546108099190610d75565b9050610815565b600090505b90565b600081519050919050565b600082825260208201905092915050565b60005b83811015610852578082015181840152602081019050610837565b60008484015250505050565b6000601f19601f8301169050919050565b600061087a82610818565b6108848185610823565b9350610894818560208601610834565b61089d8161085e565b840191505092915050565b600060208201905081810360008301526108c2818461086f565b905092915050565b6000819050919050565b6108dd816108ca565b82525050565b60006020820190506108f860008301846108d4565b92915050565b600080fd5b600073ffffffffffffffffffffffffffffffffffffffff82169050919050565b600061092e82610903565b9050919050565b61093e81610923565b811461094957600080fd5b50565b60008135905061095b81610935565b92915050565b600060208284031215610977576109766108fe565b5b60006109858482850161094c565b91505092915050565b61099781610923565b82525050565b60006020820190506109b2600083018461098e565b92915050565b7f4e487b7100000000000000000000000000000000000000000000000000000000600052602260045260246000fd5b600060028204905060018216806109ff57607f821691505b602082108103610a1257610a116109b8565b5b50919050565b7f4f6e6c79207468652062656e69666963696172792063616e207769746864726160008201527f776c2066726f6d20746865206368617269747900000000000000000000000000602082015250565b6000610a74603383610823565b9150610a7f82610a18565b604082019050919050565b60006020820190508181036000830152610aa381610a67565b9050919050565b7f5468652074696d65206f72206d6f6e657920676f616c7320666f72207468652060008201527f636861726974792068617665206e6f74206265656e2073617469736669656400602082015250565b6000610b06603f83610823565b9150610b1182610aaa565b604082019050919050565b60006020820190508181036000830152610b3581610af9565b9050919050565b7f43616e6e6f74207769746864726177207768696c6520616e6f7468657220776960008201527f746864726177616c2069732070726f63657373696e6700000000000000000000602082015250565b6000610b98603683610823565b9150610ba382610b3c565b604082019050919050565b60006020820190508181036000830152610bc781610b8b565b9050919050565b600081905092915050565b50565b6000610be9600083610bce565b9150610bf482610bd9565b600082019050919050565b6000610c0a82610bdc565b9150819050919050565b7f4661696c656420746f2073656e64000000000000000000000000000000000000600082015250565b6000610c4a600e83610823565b9150610c5582610c14565b602082019050919050565b60006020820190508181036000830152610c7981610c3d565b9050919050565b7f546865206c69766520706572696f6420666f722074686973206368617269747960008201527f2068617320656e64656400000000000000000000000000000000000000000000602082015250565b6000610cdc602a83610823565b9150610ce782610c80565b604082019050919050565b60006020820190508181036000830152610d0b81610ccf565b9050919050565b7f4e487b7100000000000000000000000000000000000000000000000000000000600052601160045260246000fd5b6000610d4c826108ca565b9150610d57836108ca565b9250828201905080821115610d6f57610d6e610d12565b5b92915050565b6000610d80826108ca565b9150610d8b836108ca565b9250828203905081811115610da357610da2610d12565b5b9291505056fea2646970667358221220ac19b5ed6fbb527300c62fb138f8eeb73d7b4493da87787d0f9fa932d5611f0e64736f6c63430008110033a26469706673582212208a6898f9362b3db7c5a67d6fe3ce5855729910cf2756bba648a5880032f5154764736f6c63430008110033",
  "linkReferences": {},
  "deployedLinkReferences": {}
}