{
  "_format": "hh-sol-artifact-1",
  "contractName": "CharityChain",
  "sourceName": "contracts/CharityChain.sol",
  "abi": [
    {
      "inputs": [],
      "name": "get_charities",
      "outputs": [
        {
          "components": [
            {
              "internalType": "address",
              "name": "charity",
              "type": "address"
            },
            {
              "internalType": "string",
              "name": "title",
              "type": "string"
            },
            {
              "internalType": "string",
              "name": "description",
              "type": "string"
            }
          ],
          "internalType": "struct CharityChain.CharityInfo[]",
          "name": "",
          "type": "tuple[]"
        }
      ],
      "stateMutability": "view",
      "type": "function"
    },
    {
      "inputs": [],
      "name": "get_user_contributions",
      "outputs": [
        {
          "components": [
            {
              "internalType": "address",
              "name": "charity",
              "type": "address"
            },
            {
              "internalType": "uint256",
              "name": "amount",
              "type": "uint256"
            }
          ],
          "internalType": "struct CharityChain.UserContribution[]",
          "name": "",
          "type": "tuple[]"
        }
      ],
      "stateMutability": "view",
      "type": "function"
    },
    {
      "inputs": [],
      "name": "get_user_creations",
      "outputs": [
        {
          "internalType": "address[]",
          "name": "",
          "type": "address[]"
        }
      ],
      "stateMutability": "view",
      "type": "function"
    },
    {
      "inputs": [
        {
          "internalType": "string",
          "name": "_name",
          "type": "string"
        },
        {
          "internalType": "address",
          "name": "_beneficiary",
          "type": "address"
        },
        {
          "internalType": "uint256",
          "name": "_goal",
          "type": "uint256"
        },
        {
          "internalType": "string",
          "name": "_metadata",
          "type": "string"
        },
        {
          "internalType": "uint256",
          "name": "_end_time",
          "type": "uint256"
        }
      ],
      "name": "make_charity",
      "outputs": [
        {
          "internalType": "address",
          "name": "",
          "type": "address"
        }
      ],
      "stateMutability": "payable",
      "type": "function"
    }
  ],
  "bytecode": "0x6080604052600067ffffffffffffffff8111156200002257620000216200012c565b5b604051908082528060200260200182016040528015620000515781602001602082028036833780820191505090505b5060009080519060200190620000699291906200007e565b503480156200007757600080fd5b506200015b565b828054828255906000526020600020908101928215620000fa579160200282015b82811115620000f95782518260006101000a81548173ffffffffffffffffffffffffffffffffffffffff021916908373ffffffffffffffffffffffffffffffffffffffff160217905550916020019190600101906200009f565b5b5090506200010991906200010d565b5090565b5b80821115620001285760008160009055506001016200010e565b5090565b7f4e487b7100000000000000000000000000000000000000000000000000000000600052604160045260246000fd5b6129ac806200016b6000396000f3fe608060405260043610620000445760003560e01c806312f4b0041462000049578063147742e1146200007f57806314a1e3ed14620000af5780635feded5d14620000df575b600080fd5b62000067600480360381019062000061919062000ae8565b6200010f565b60405162000076919062000bbf565b60405180910390f35b3480156200008c57600080fd5b5062000097620001c7565b604051620000a6919062000caa565b60405180910390f35b348015620000bc57600080fd5b50620000c7620003cc565b604051620000d6919062000e84565b60405180910390f35b348015620000ec57600080fd5b50620000f76200066c565b60405162000106919062000fa9565b60405180910390f35b60008086868685873360405162000126906200085d565b620001379695949392919062001030565b604051809103906000f08015801562000154573d6000803e3d6000fd5b5090506000819080600181540180825580915050600190039060005260206000200160009091909190916101000a81548173ffffffffffffffffffffffffffffffffffffffff021916908373ffffffffffffffffffffffffffffffffffffffff1602179055508091505095945050505050565b606060008080549050905060008167ffffffffffffffff811115620001f157620001f062000901565b5b604051908082528060200260200182016040528015620002205781602001602082028036833780820191505090505b50905060005b82811015620003c3576000808281548110620002475762000246620010ab565b5b9060005260206000200160009054906101000a900473ffffffffffffffffffffffffffffffffffffffff1673ffffffffffffffffffffffffffffffffffffffff1663ace1ed076040518163ffffffff1660e01b8152600401602060405180830381865afa158015620002bd573d6000803e3d6000fd5b505050506040513d601f19601f82011682018060405250810190620002e39190620010f1565b90503373ffffffffffffffffffffffffffffffffffffffff168173ffffffffffffffffffffffffffffffffffffffff1603620003ac576000828154811062000330576200032f620010ab565b5b9060005260206000200160009054906101000a900473ffffffffffffffffffffffffffffffffffffffff16838381518110620003715762000370620010ab565b5b602002602001019073ffffffffffffffffffffffffffffffffffffffff16908173ffffffffffffffffffffffffffffffffffffffff16815250505b508080620003ba9062001152565b91505062000226565b50809250505090565b606060008080549050905060008167ffffffffffffffff811115620003f657620003f562000901565b5b6040519080825280602002602001820160405280156200043357816020015b6200041f6200086b565b815260200190600190039081620004155790505b50905060005b82811015620006635760008082815481106200045a5762000459620010ab565b5b9060005260206000200160009054906101000a900473ffffffffffffffffffffffffffffffffffffffff1673ffffffffffffffffffffffffffffffffffffffff16633a525c296040518163ffffffff1660e01b8152600401600060405180830381865afa158015620004d0573d6000803e3d6000fd5b505050506040513d6000823e3d601f19601f82011682018060405250810190620004fb91906200121d565b90506000808381548110620005155762000514620010ab565b5b9060005260206000200160009054906101000a900473ffffffffffffffffffffffffffffffffffffffff1673ffffffffffffffffffffffffffffffffffffffff166386485aaa6040518163ffffffff1660e01b8152600401600060405180830381865afa1580156200058b573d6000803e3d6000fd5b505050506040513d6000823e3d601f19601f82011682018060405250810190620005b691906200121d565b9050604051806060016040528060008581548110620005da57620005d9620010ab565b5b9060005260206000200160009054906101000a900473ffffffffffffffffffffffffffffffffffffffff1673ffffffffffffffffffffffffffffffffffffffff1681526020018381526020018281525084848151811062000640576200063f620010ab565b5b6020026020010181905250505080806200065a9062001152565b91505062000439565b50809250505090565b606060008080549050905060008167ffffffffffffffff81111562000696576200069562000901565b5b604051908082528060200260200182016040528015620006d357816020015b620006bf620008a2565b815260200190600190039081620006b55790505b50905060005b8281101562000854576000808281548110620006fa57620006f9620010ab565b5b9060005260206000200160009054906101000a900473ffffffffffffffffffffffffffffffffffffffff1673ffffffffffffffffffffffffffffffffffffffff166345dea629336040518263ffffffff1660e01b81526004016200075f919062000bbf565b602060405180830381865afa1580156200077d573d6000803e3d6000fd5b505050506040513d601f19601f82011682018060405250810190620007a3919062001285565b905060008111156200083d57604051806040016040528060008481548110620007d157620007d0620010ab565b5b9060005260206000200160009054906101000a900473ffffffffffffffffffffffffffffffffffffffff1673ffffffffffffffffffffffffffffffffffffffff16815260200182815250838381518110620008315762000830620010ab565b5b60200260200101819052505b5080806200084b9062001152565b915050620006d9565b50809250505090565b6116bf80620012b883390190565b6040518060600160405280600073ffffffffffffffffffffffffffffffffffffffff16815260200160608152602001606081525090565b6040518060400160405280600073ffffffffffffffffffffffffffffffffffffffff168152602001600081525090565b6000604051905090565b600080fd5b600080fd5b600080fd5b600080fd5b6000601f19601f8301169050919050565b7f4e487b7100000000000000000000000000000000000000000000000000000000600052604160045260246000fd5b6200093b82620008f0565b810181811067ffffffffffffffff821117156200095d576200095c62000901565b5b80604052505050565b600062000972620008d2565b905062000980828262000930565b919050565b600067ffffffffffffffff821115620009a357620009a262000901565b5b620009ae82620008f0565b9050602081019050919050565b82818337600083830152505050565b6000620009e1620009db8462000985565b62000966565b90508281526020810184848401111562000a0057620009ff620008eb565b5b62000a0d848285620009bb565b509392505050565b600082601f83011262000a2d5762000a2c620008e6565b5b813562000a3f848260208601620009ca565b91505092915050565b600073ffffffffffffffffffffffffffffffffffffffff82169050919050565b600062000a758262000a48565b9050919050565b62000a878162000a68565b811462000a9357600080fd5b50565b60008135905062000aa78162000a7c565b92915050565b6000819050919050565b62000ac28162000aad565b811462000ace57600080fd5b50565b60008135905062000ae28162000ab7565b92915050565b600080600080600060a0868803121562000b075762000b06620008dc565b5b600086013567ffffffffffffffff81111562000b285762000b27620008e1565b5b62000b368882890162000a15565b955050602062000b498882890162000a96565b945050604062000b5c8882890162000ad1565b935050606086013567ffffffffffffffff81111562000b805762000b7f620008e1565b5b62000b8e8882890162000a15565b925050608062000ba18882890162000ad1565b9150509295509295909350565b62000bb98162000a68565b82525050565b600060208201905062000bd6600083018462000bae565b92915050565b600081519050919050565b600082825260208201905092915050565b6000819050602082019050919050565b62000c138162000a68565b82525050565b600062000c27838362000c08565b60208301905092915050565b6000602082019050919050565b600062000c4d8262000bdc565b62000c59818562000be7565b935062000c668362000bf8565b8060005b8381101562000c9d57815162000c81888262000c19565b975062000c8e8362000c33565b92505060018101905062000c6a565b5085935050505092915050565b6000602082019050818103600083015262000cc6818462000c40565b905092915050565b600081519050919050565b600082825260208201905092915050565b6000819050602082019050919050565b600081519050919050565b600082825260208201905092915050565b60005b8381101562000d3657808201518184015260208101905062000d19565b60008484015250505050565b600062000d4f8262000cfa565b62000d5b818562000d05565b935062000d6d81856020860162000d16565b62000d7881620008f0565b840191505092915050565b600060608301600083015162000d9d600086018262000c08565b506020830151848203602086015262000db7828262000d42565b9150506040830151848203604086015262000dd3828262000d42565b9150508091505092915050565b600062000dee838362000d83565b905092915050565b6000602082019050919050565b600062000e108262000cce565b62000e1c818562000cd9565b93508360208202850162000e308562000cea565b8060005b8581101562000e72578484038952815162000e50858262000de0565b945062000e5d8362000df6565b925060208a0199505060018101905062000e34565b50829750879550505050505092915050565b6000602082019050818103600083015262000ea0818462000e03565b905092915050565b600081519050919050565b600082825260208201905092915050565b6000819050602082019050919050565b62000edf8162000aad565b82525050565b60408201600082015162000efd600085018262000c08565b50602082015162000f12602085018262000ed4565b50505050565b600062000f26838362000ee5565b60408301905092915050565b6000602082019050919050565b600062000f4c8262000ea8565b62000f58818562000eb3565b935062000f658362000ec4565b8060005b8381101562000f9c57815162000f80888262000f18565b975062000f8d8362000f32565b92505060018101905062000f69565b5085935050505092915050565b6000602082019050818103600083015262000fc5818462000f3f565b905092915050565b600082825260208201905092915050565b600062000feb8262000cfa565b62000ff7818562000fcd565b93506200100981856020860162000d16565b6200101481620008f0565b840191505092915050565b6200102a8162000aad565b82525050565b600060c08201905081810360008301526200104c818962000fde565b90506200105d602083018862000bae565b6200106c60408301876200101f565b6200107b60608301866200101f565b81810360808301526200108f818562000fde565b9050620010a060a083018462000bae565b979650505050505050565b7f4e487b7100000000000000000000000000000000000000000000000000000000600052603260045260246000fd5b600081519050620010eb8162000a7c565b92915050565b6000602082840312156200110a5762001109620008dc565b5b60006200111a84828501620010da565b91505092915050565b7f4e487b7100000000000000000000000000000000000000000000000000000000600052601160045260246000fd5b60006200115f8262000aad565b91507fffffffffffffffffffffffffffffffffffffffffffffffffffffffffffffffff820362001194576200119362001123565b5b600182019050919050565b6000620011b6620011b08462000985565b62000966565b905082815260208101848484011115620011d557620011d4620008eb565b5b620011e284828562000d16565b509392505050565b600082601f830112620012025762001201620008e6565b5b8151620012148482602086016200119f565b91505092915050565b600060208284031215620012365762001235620008dc565b5b600082015167ffffffffffffffff811115620012575762001256620008e1565b5b6200126584828501620011ea565b91505092915050565b6000815190506200127f8162000ab7565b92915050565b6000602082840312156200129e576200129d620008dc565b5b6000620012ae848285016200126e565b9150509291505056fe60806040526000600760006101000a81548160ff0219169083151502179055503480156200002c57600080fd5b50604051620016bf380380620016bf83398181016040528101906200005291906200039b565b8560009081620000639190620006b6565b5084600560006101000a81548173ffffffffffffffffffffffffffffffffffffffff021916908373ffffffffffffffffffffffffffffffffffffffff160217905550836004819055504283620000ba9190620007cc565b60068190555080600360006101000a81548173ffffffffffffffffffffffffffffffffffffffff021916908373ffffffffffffffffffffffffffffffffffffffff16021790555033600760016101000a81548173ffffffffffffffffffffffffffffffffffffffff021916908373ffffffffffffffffffffffffffffffffffffffff160217905550600060088190555081600190816200015b9190620006b6565b5050505050505062000807565b6000604051905090565b600080fd5b600080fd5b600080fd5b600080fd5b6000601f19601f8301169050919050565b7f4e487b7100000000000000000000000000000000000000000000000000000000600052604160045260246000fd5b620001d18262000186565b810181811067ffffffffffffffff82111715620001f357620001f262000197565b5b80604052505050565b60006200020862000168565b9050620002168282620001c6565b919050565b600067ffffffffffffffff82111562000239576200023862000197565b5b620002448262000186565b9050602081019050919050565b60005b838110156200027157808201518184015260208101905062000254565b60008484015250505050565b6000620002946200028e846200021b565b620001fc565b905082815260208101848484011115620002b357620002b262000181565b5b620002c084828562000251565b509392505050565b600082601f830112620002e057620002df6200017c565b5b8151620002f28482602086016200027d565b91505092915050565b600073ffffffffffffffffffffffffffffffffffffffff82169050919050565b60006200032882620002fb565b9050919050565b6200033a816200031b565b81146200034657600080fd5b50565b6000815190506200035a816200032f565b92915050565b6000819050919050565b620003758162000360565b81146200038157600080fd5b50565b60008151905062000395816200036a565b92915050565b60008060008060008060c08789031215620003bb57620003ba62000172565b5b600087015167ffffffffffffffff811115620003dc57620003db62000177565b5b620003ea89828a01620002c8565b9650506020620003fd89828a0162000349565b95505060406200041089828a0162000384565b94505060606200042389828a0162000384565b935050608087015167ffffffffffffffff81111562000447576200044662000177565b5b6200045589828a01620002c8565b92505060a06200046889828a0162000349565b9150509295509295509295565b600081519050919050565b7f4e487b7100000000000000000000000000000000000000000000000000000000600052602260045260246000fd5b60006002820490506001821680620004c857607f821691505b602082108103620004de57620004dd62000480565b5b50919050565b60008190508160005260206000209050919050565b60006020601f8301049050919050565b600082821b905092915050565b600060088302620005487fffffffffffffffffffffffffffffffffffffffffffffffffffffffffffffffff8262000509565b62000554868362000509565b95508019841693508086168417925050509392505050565b6000819050919050565b600062000597620005916200058b8462000360565b6200056c565b62000360565b9050919050565b6000819050919050565b620005b38362000576565b620005cb620005c2826200059e565b84845462000516565b825550505050565b600090565b620005e2620005d3565b620005ef818484620005a8565b505050565b5b8181101562000617576200060b600082620005d8565b600181019050620005f5565b5050565b601f82111562000666576200063081620004e4565b6200063b84620004f9565b810160208510156200064b578190505b620006636200065a85620004f9565b830182620005f4565b50505b505050565b600082821c905092915050565b60006200068b600019846008026200066b565b1980831691505092915050565b6000620006a6838362000678565b9150826002028217905092915050565b620006c18262000475565b67ffffffffffffffff811115620006dd57620006dc62000197565b5b620006e98254620004af565b620006f68282856200061b565b600060209050601f8311600181146200072e576000841562000719578287015190505b62000725858262000698565b86555062000795565b601f1984166200073e86620004e4565b60005b82811015620007685784890151825560018201915060208501945060208101905062000741565b8683101562000788578489015162000784601f89168262000678565b8355505b6001600288020188555050505b505050505050565b7f4e487b7100000000000000000000000000000000000000000000000000000000600052601160045260246000fd5b6000620007d98262000360565b9150620007e68362000360565b92508282019050808211156200080157620008006200079d565b5b92915050565b610ea880620008176000396000f3fe6080604052600436106100a75760003560e01c8063a9e10bf211610064578063a9e10bf2146101ac578063ace1ed07146101b6578063c1cfb99a146101e1578063d94de4eb1461020c578063d9fc907e14610237578063e07f63a114610262576100a7565b80633a525c29146100ac5780633aedfb8b146100d75780633c9c192f146100ee57806345dea629146101195780636ded41fd1461015657806386485aaa14610181575b600080fd5b3480156100b857600080fd5b506100c161028d565b6040516100ce9190610971565b60405180910390f35b3480156100e357600080fd5b506100ec61031f565b005b3480156100fa57600080fd5b50610103610580565b60405161011091906109ac565b60405180910390f35b34801561012557600080fd5b50610140600480360381019061013b9190610a2a565b61058a565b60405161014d91906109ac565b60405180910390f35b34801561016257600080fd5b5061016b61062d565b60405161017891906109ac565b60405180910390f35b34801561018d57600080fd5b50610196610637565b6040516101a39190610971565b60405180910390f35b6101b46106c9565b005b3480156101c257600080fd5b506101cb610815565b6040516101d89190610a66565b60405180910390f35b3480156101ed57600080fd5b506101f661083f565b60405161020391906109ac565b60405180910390f35b34801561021857600080fd5b50610221610847565b60405161022e91906109ac565b60405180910390f35b34801561024357600080fd5b5061024c61088e565b6040516102599190610a66565b60405180910390f35b34801561026e57600080fd5b506102776108b8565b60405161028491906109ac565b60405180910390f35b60606000805461029c90610ab0565b80601f01602080910402602001604051908101604052809291908181526020018280546102c890610ab0565b80156103155780601f106102ea57610100808354040283529160200191610315565b820191906000526020600020905b8154815290600101906020018083116102f857829003601f168201915b5050505050905090565b600560009054906101000a900473ffffffffffffffffffffffffffffffffffffffff1673ffffffffffffffffffffffffffffffffffffffff163373ffffffffffffffffffffffffffffffffffffffff16146103af576040517f08c379a00000000000000000000000000000000000000000000000000000000081526004016103a690610b53565b60405180910390fd5b600654421015806103c257504760045411155b610401576040517f08c379a00000000000000000000000000000000000000000000000000000000081526004016103f890610be5565b60405180910390fd5b600760009054906101000a900460ff1615610451576040517f08c379a000000000000000000000000000000000000000000000000000000000815260040161044890610c77565b60405180910390fd5b6001600760006101000a81548160ff02191690831515021790555060004790506000811161047e57600080fd5b60003373ffffffffffffffffffffffffffffffffffffffff16826040516104a490610cc8565b60006040518083038185875af1925050503d80600081146104e1576040519150601f19603f3d011682016040523d82523d6000602084013e6104e6565b606091505b505090508061052a576040517f08c379a000000000000000000000000000000000000000000000000000000000815260040161052190610d29565b60405180910390fd5b7f0693a1340de4d4506f6f7d9a2c404381f0ed88bae5f06b8f4c65ace8081d39f08260405161055991906109ac565b60405180910390a16000600760006101000a81548160ff0219169083151502179055505050565b6000600454905090565b6000600760019054906101000a900473ffffffffffffffffffffffffffffffffffffffff1673ffffffffffffffffffffffffffffffffffffffff163373ffffffffffffffffffffffffffffffffffffffff16146105e657600080fd5b600260008373ffffffffffffffffffffffffffffffffffffffff1673ffffffffffffffffffffffffffffffffffffffff168152602001908152602001600020549050919050565b6000600854905090565b60606001805461064690610ab0565b80601f016020809104026020016040519081016040528092919081815260200182805461067290610ab0565b80156106bf5780601f10610694576101008083540402835291602001916106bf565b820191906000526020600020905b8154815290600101906020018083116106a257829003601f168201915b5050505050905090565b600654421061070d576040517f08c379a000000000000000000000000000000000000000000000000000000000815260040161070490610dbb565b60405180910390fd5b6000600260003373ffffffffffffffffffffffffffffffffffffffff1673ffffffffffffffffffffffffffffffffffffffff168152602001908152602001600020541161076f576001600860008282546107679190610e0a565b925050819055505b34600260003373ffffffffffffffffffffffffffffffffffffffff1673ffffffffffffffffffffffffffffffffffffffff16815260200190815260200160002060008282546107be9190610e0a565b925050819055503373ffffffffffffffffffffffffffffffffffffffff167f1bb460ccaaf70fbacfec17a376f8acbd278c1405590ffcc8ebe4b88daf4f64ad3460405161080b91906109ac565b60405180910390a2565b6000600360009054906101000a900473ffffffffffffffffffffffffffffffffffffffff16905090565b600047905090565b6000600260003373ffffffffffffffffffffffffffffffffffffffff1673ffffffffffffffffffffffffffffffffffffffff16815260200190815260200160002054905090565b6000600560009054906101000a900473ffffffffffffffffffffffffffffffffffffffff16905090565b60006006544210156108d957426006546108d29190610e3e565b90506108de565b600090505b90565b600081519050919050565b600082825260208201905092915050565b60005b8381101561091b578082015181840152602081019050610900565b60008484015250505050565b6000601f19601f8301169050919050565b6000610943826108e1565b61094d81856108ec565b935061095d8185602086016108fd565b61096681610927565b840191505092915050565b6000602082019050818103600083015261098b8184610938565b905092915050565b6000819050919050565b6109a681610993565b82525050565b60006020820190506109c1600083018461099d565b92915050565b600080fd5b600073ffffffffffffffffffffffffffffffffffffffff82169050919050565b60006109f7826109cc565b9050919050565b610a07816109ec565b8114610a1257600080fd5b50565b600081359050610a24816109fe565b92915050565b600060208284031215610a4057610a3f6109c7565b5b6000610a4e84828501610a15565b91505092915050565b610a60816109ec565b82525050565b6000602082019050610a7b6000830184610a57565b92915050565b7f4e487b7100000000000000000000000000000000000000000000000000000000600052602260045260246000fd5b60006002820490506001821680610ac857607f821691505b602082108103610adb57610ada610a81565b5b50919050565b7f4f6e6c79207468652062656e69666963696172792063616e207769746864726160008201527f776c2066726f6d20746865206368617269747900000000000000000000000000602082015250565b6000610b3d6033836108ec565b9150610b4882610ae1565b604082019050919050565b60006020820190508181036000830152610b6c81610b30565b9050919050565b7f5468652074696d65206f72206d6f6e657920676f616c7320666f72207468652060008201527f636861726974792068617665206e6f74206265656e2073617469736669656400602082015250565b6000610bcf603f836108ec565b9150610bda82610b73565b604082019050919050565b60006020820190508181036000830152610bfe81610bc2565b9050919050565b7f43616e6e6f74207769746864726177207768696c6520616e6f7468657220776960008201527f746864726177616c2069732070726f63657373696e6700000000000000000000602082015250565b6000610c616036836108ec565b9150610c6c82610c05565b604082019050919050565b60006020820190508181036000830152610c9081610c54565b9050919050565b600081905092915050565b50565b6000610cb2600083610c97565b9150610cbd82610ca2565b600082019050919050565b6000610cd382610ca5565b9150819050919050565b7f4661696c656420746f2073656e64000000000000000000000000000000000000600082015250565b6000610d13600e836108ec565b9150610d1e82610cdd565b602082019050919050565b60006020820190508181036000830152610d4281610d06565b9050919050565b7f546865206c69766520706572696f6420666f722074686973206368617269747960008201527f2068617320656e64656400000000000000000000000000000000000000000000602082015250565b6000610da5602a836108ec565b9150610db082610d49565b604082019050919050565b60006020820190508181036000830152610dd481610d98565b9050919050565b7f4e487b7100000000000000000000000000000000000000000000000000000000600052601160045260246000fd5b6000610e1582610993565b9150610e2083610993565b9250828201905080821115610e3857610e37610ddb565b5b92915050565b6000610e4982610993565b9150610e5483610993565b9250828203905081811115610e6c57610e6b610ddb565b5b9291505056fea2646970667358221220ddedd733d74a7edf1f520e76b74cfc3a60ad50686921a244db0faa939d5c770d64736f6c63430008110033a2646970667358221220bdcd8a8939b9359d2e972f290694ba57967331c82936219133693a7c8ae716d664736f6c63430008110033",
  "linkReferences": {},
  "deployedLinkReferences": {}
}