{
  "_format": "hh-sol-artifact-1",
  "contractName": "Charity",
  "sourceName": "contracts/Charity.sol",
  "abi": [
    {
      "inputs": [
        {
          "internalType": "string",
          "name": "_name",
          "type": "string"
        },
        {
          "internalType": "address",
          "name": "_beneficiary",
          "type": "address"
        },
        {
          "internalType": "uint256",
          "name": "_goal",
          "type": "uint256"
        },
        {
          "internalType": "uint256",
          "name": "_end_time",
          "type": "uint256"
        }
      ],
      "stateMutability": "nonpayable",
      "type": "constructor"
    },
    {
      "anonymous": false,
      "inputs": [
        {
          "indexed": true,
          "internalType": "address",
          "name": "fromAddress",
          "type": "address"
        },
        {
          "indexed": false,
          "internalType": "uint256",
          "name": "amount",
          "type": "uint256"
        }
      ],
      "name": "ContributionReceived",
      "type": "event"
    },
    {
      "anonymous": false,
      "inputs": [
        {
          "indexed": false,
          "internalType": "uint256",
          "name": "amount",
          "type": "uint256"
        }
      ],
      "name": "WithdrawlSent",
      "type": "event"
    },
    {
      "inputs": [],
      "name": "get_balance",
      "outputs": [
        {
          "internalType": "uint256",
          "name": "",
          "type": "uint256"
        }
      ],
      "stateMutability": "view",
      "type": "function"
    },
    {
      "inputs": [],
      "name": "get_beneficiary",
      "outputs": [
        {
          "internalType": "address",
          "name": "",
          "type": "address"
        }
      ],
      "stateMutability": "view",
      "type": "function"
    },
    {
      "inputs": [],
      "name": "get_goal",
      "outputs": [
        {
          "internalType": "uint256",
          "name": "",
          "type": "uint256"
        }
      ],
      "stateMutability": "view",
      "type": "function"
    },
    {
      "inputs": [],
      "name": "get_name",
      "outputs": [
        {
          "internalType": "string",
          "name": "",
          "type": "string"
        }
      ],
      "stateMutability": "view",
      "type": "function"
    },
    {
      "inputs": [],
      "name": "get_time_left",
      "outputs": [
        {
          "internalType": "uint256",
          "name": "",
          "type": "uint256"
        }
      ],
      "stateMutability": "view",
      "type": "function"
    },
    {
      "inputs": [],
      "name": "get_user_balance",
      "outputs": [
        {
          "internalType": "uint256",
          "name": "",
          "type": "uint256"
        }
      ],
      "stateMutability": "view",
      "type": "function"
    },
    {
      "inputs": [],
      "name": "recieve",
      "outputs": [],
      "stateMutability": "payable",
      "type": "function"
    },
    {
      "inputs": [],
      "name": "withdrawl",
      "outputs": [],
      "stateMutability": "nonpayable",
      "type": "function"
    }
  ],
  "bytecode": "0x60806040526000600660006101000a81548160ff0219169083151502179055503480156200002c57600080fd5b50604051620013053803806200130583398181016040528101906200005291906200033e565b836000908162000063919062000610565b5082600460006101000a81548173ffffffffffffffffffffffffffffffffffffffff021916908373ffffffffffffffffffffffffffffffffffffffff160217905550816003819055504281620000ba919062000726565b60058190555033600260006101000a81548173ffffffffffffffffffffffffffffffffffffffff021916908373ffffffffffffffffffffffffffffffffffffffff1602179055505050505062000761565b6000604051905090565b600080fd5b600080fd5b600080fd5b600080fd5b6000601f19601f8301169050919050565b7f4e487b7100000000000000000000000000000000000000000000000000000000600052604160045260246000fd5b620001748262000129565b810181811067ffffffffffffffff821117156200019657620001956200013a565b5b80604052505050565b6000620001ab6200010b565b9050620001b9828262000169565b919050565b600067ffffffffffffffff821115620001dc57620001db6200013a565b5b620001e78262000129565b9050602081019050919050565b60005b8381101562000214578082015181840152602081019050620001f7565b60008484015250505050565b6000620002376200023184620001be565b6200019f565b90508281526020810184848401111562000256576200025562000124565b5b62000263848285620001f4565b509392505050565b600082601f8301126200028357620002826200011f565b5b81516200029584826020860162000220565b91505092915050565b600073ffffffffffffffffffffffffffffffffffffffff82169050919050565b6000620002cb826200029e565b9050919050565b620002dd81620002be565b8114620002e957600080fd5b50565b600081519050620002fd81620002d2565b92915050565b6000819050919050565b620003188162000303565b81146200032457600080fd5b50565b60008151905062000338816200030d565b92915050565b600080600080608085870312156200035b576200035a62000115565b5b600085015167ffffffffffffffff8111156200037c576200037b6200011a565b5b6200038a878288016200026b565b94505060206200039d87828801620002ec565b9350506040620003b08782880162000327565b9250506060620003c38782880162000327565b91505092959194509250565b600081519050919050565b7f4e487b7100000000000000000000000000000000000000000000000000000000600052602260045260246000fd5b600060028204905060018216806200042257607f821691505b602082108103620004385762000437620003da565b5b50919050565b60008190508160005260206000209050919050565b60006020601f8301049050919050565b600082821b905092915050565b600060088302620004a27fffffffffffffffffffffffffffffffffffffffffffffffffffffffffffffffff8262000463565b620004ae868362000463565b95508019841693508086168417925050509392505050565b6000819050919050565b6000620004f1620004eb620004e58462000303565b620004c6565b62000303565b9050919050565b6000819050919050565b6200050d83620004d0565b620005256200051c82620004f8565b84845462000470565b825550505050565b600090565b6200053c6200052d565b6200054981848462000502565b505050565b5b8181101562000571576200056560008262000532565b6001810190506200054f565b5050565b601f821115620005c0576200058a816200043e565b620005958462000453565b81016020851015620005a5578190505b620005bd620005b48562000453565b8301826200054e565b50505b505050565b600082821c905092915050565b6000620005e560001984600802620005c5565b1980831691505092915050565b6000620006008383620005d2565b9150826002028217905092915050565b6200061b82620003cf565b67ffffffffffffffff8111156200063757620006366200013a565b5b62000643825462000409565b6200065082828562000575565b600060209050601f83116001811462000688576000841562000673578287015190505b6200067f8582620005f2565b865550620006ef565b601f19841662000698866200043e565b60005b82811015620006c2578489015182556001820191506020850194506020810190506200069b565b86831015620006e25784890151620006de601f891682620005d2565b8355505b6001600288020188555050505b505050505050565b7f4e487b7100000000000000000000000000000000000000000000000000000000600052601160045260246000fd5b6000620007338262000303565b9150620007408362000303565b92508282019050808211156200075b576200075a620006f7565b5b92915050565b610b9480620007716000396000f3fe60806040526004361061007b5760003560e01c8063c1cfb99a1161004e578063c1cfb99a146100f7578063d94de4eb14610122578063d9fc907e1461014d578063e07f63a1146101785761007b565b80633a525c29146100805780633aedfb8b146100ab5780633c9c192f146100c2578063a9e10bf2146100ed575b600080fd5b34801561008c57600080fd5b506100956101a3565b6040516100a291906106bb565b60405180910390f35b3480156100b757600080fd5b506100c0610235565b005b3480156100ce57600080fd5b506100d7610495565b6040516100e491906106f6565b60405180910390f35b6100f561049f565b005b34801561010357600080fd5b5061010c610589565b60405161011991906106f6565b60405180910390f35b34801561012e57600080fd5b50610137610591565b60405161014491906106f6565b60405180910390f35b34801561015957600080fd5b506101626105d8565b60405161016f9190610752565b60405180910390f35b34801561018457600080fd5b5061018d610602565b60405161019a91906106f6565b60405180910390f35b6060600080546101b29061079c565b80601f01602080910402602001604051908101604052809291908181526020018280546101de9061079c565b801561022b5780601f106102005761010080835404028352916020019161022b565b820191906000526020600020905b81548152906001019060200180831161020e57829003601f168201915b5050505050905090565b600460009054906101000a900473ffffffffffffffffffffffffffffffffffffffff1673ffffffffffffffffffffffffffffffffffffffff163373ffffffffffffffffffffffffffffffffffffffff16146102c5576040517f08c379a00000000000000000000000000000000000000000000000000000000081526004016102bc9061083f565b60405180910390fd5b600554421015806102d7575047600354105b610316576040517f08c379a000000000000000000000000000000000000000000000000000000000815260040161030d906108d1565b60405180910390fd5b600660009054906101000a900460ff1615610366576040517f08c379a000000000000000000000000000000000000000000000000000000000815260040161035d90610963565b60405180910390fd5b6001600660006101000a81548160ff02191690831515021790555060004790506000811161039357600080fd5b60003373ffffffffffffffffffffffffffffffffffffffff16826040516103b9906109b4565b60006040518083038185875af1925050503d80600081146103f6576040519150601f19603f3d011682016040523d82523d6000602084013e6103fb565b606091505b505090508061043f576040517f08c379a000000000000000000000000000000000000000000000000000000000815260040161043690610a15565b60405180910390fd5b7f0693a1340de4d4506f6f7d9a2c404381f0ed88bae5f06b8f4c65ace8081d39f08260405161046e91906106f6565b60405180910390a16000600660006101000a81548160ff0219169083151502179055505050565b6000600354905090565b60055442106104e3576040517f08c379a00000000000000000000000000000000000000000000000000000000081526004016104da90610aa7565b60405180910390fd5b34600160003373ffffffffffffffffffffffffffffffffffffffff1673ffffffffffffffffffffffffffffffffffffffff16815260200190815260200160002060008282546105329190610af6565b925050819055503373ffffffffffffffffffffffffffffffffffffffff167f1bb460ccaaf70fbacfec17a376f8acbd278c1405590ffcc8ebe4b88daf4f64ad3460405161057f91906106f6565b60405180910390a2565b600047905090565b6000600160003373ffffffffffffffffffffffffffffffffffffffff1673ffffffffffffffffffffffffffffffffffffffff16815260200190815260200160002054905090565b6000600460009054906101000a900473ffffffffffffffffffffffffffffffffffffffff16905090565b6000600554421015610623574260055461061c9190610b2a565b9050610628565b600090505b90565b600081519050919050565b600082825260208201905092915050565b60005b8381101561066557808201518184015260208101905061064a565b60008484015250505050565b6000601f19601f8301169050919050565b600061068d8261062b565b6106978185610636565b93506106a7818560208601610647565b6106b081610671565b840191505092915050565b600060208201905081810360008301526106d58184610682565b905092915050565b6000819050919050565b6106f0816106dd565b82525050565b600060208201905061070b60008301846106e7565b92915050565b600073ffffffffffffffffffffffffffffffffffffffff82169050919050565b600061073c82610711565b9050919050565b61074c81610731565b82525050565b60006020820190506107676000830184610743565b92915050565b7f4e487b7100000000000000000000000000000000000000000000000000000000600052602260045260246000fd5b600060028204905060018216806107b457607f821691505b6020821081036107c7576107c661076d565b5b50919050565b7f4f6e6c79207468652062656e69666963696172792063616e207769746864726160008201527f776c2066726f6d20746865206368617269747900000000000000000000000000602082015250565b6000610829603383610636565b9150610834826107cd565b604082019050919050565b600060208201905081810360008301526108588161081c565b9050919050565b7f5468652074696d65206f72206d6f6e657920676f616c7320666f72207468652060008201527f636861726974792068617665206e6f74206265656e2073617469736669656400602082015250565b60006108bb603f83610636565b91506108c68261085f565b604082019050919050565b600060208201905081810360008301526108ea816108ae565b9050919050565b7f43616e6e6f74207769746864726177207768696c6520616e6f7468657220776960008201527f746864726177616c2069732070726f63657373696e6700000000000000000000602082015250565b600061094d603683610636565b9150610958826108f1565b604082019050919050565b6000602082019050818103600083015261097c81610940565b9050919050565b600081905092915050565b50565b600061099e600083610983565b91506109a98261098e565b600082019050919050565b60006109bf82610991565b9150819050919050565b7f4661696c656420746f2073656e64000000000000000000000000000000000000600082015250565b60006109ff600e83610636565b9150610a0a826109c9565b602082019050919050565b60006020820190508181036000830152610a2e816109f2565b9050919050565b7f546865206c69766520706572696f6420666f722074686973206368617269747960008201527f2068617320656e64656400000000000000000000000000000000000000000000602082015250565b6000610a91602a83610636565b9150610a9c82610a35565b604082019050919050565b60006020820190508181036000830152610ac081610a84565b9050919050565b7f4e487b7100000000000000000000000000000000000000000000000000000000600052601160045260246000fd5b6000610b01826106dd565b9150610b0c836106dd565b9250828201905080821115610b2457610b23610ac7565b5b92915050565b6000610b35826106dd565b9150610b40836106dd565b9250828203905081811115610b5857610b57610ac7565b5b9291505056fea26469706673582212203e8f7daba7f478cea6a1f2ecc8210dc077bfd1c26152d29acbe6792a5330528e64736f6c63430008110033",
  "linkReferences": {},
  "deployedLinkReferences": {}
}